{
  "address": "0x9205cC02bec917a6DADA5Bc13581d520c3322DF9",
  "abi": [
    {
      "inputs": [],
      "stateMutability": "nonpayable",
      "type": "constructor"
    },
    {
      "anonymous": false,
      "inputs": [
        {
          "indexed": true,
          "internalType": "bytes32",
          "name": "characterHash",
          "type": "bytes32"
        }
      ],
      "name": "CharacterAdded",
      "type": "event"
    },
    {
      "anonymous": false,
      "inputs": [
        {
          "indexed": true,
          "internalType": "bytes32",
          "name": "characterHash",
          "type": "bytes32"
        },
        {
          "indexed": true,
          "internalType": "address",
          "name": "buyerAddress",
          "type": "address"
        },
        {
          "indexed": false,
          "internalType": "address",
          "name": "currency",
          "type": "address"
        },
        {
          "indexed": false,
          "internalType": "uint256",
          "name": "price",
          "type": "uint256"
        }
      ],
      "name": "CharacterBought",
      "type": "event"
    },
    {
      "anonymous": false,
      "inputs": [
        {
          "indexed": true,
          "internalType": "bytes32",
          "name": "characterHash",
          "type": "bytes32"
        },
        {
          "indexed": true,
          "internalType": "uint256",
          "name": "paramId",
          "type": "uint256"
        },
        {
          "indexed": false,
          "internalType": "bytes",
          "name": "oldValue",
          "type": "bytes"
        },
        {
          "indexed": false,
          "internalType": "bytes",
          "name": "newValue",
          "type": "bytes"
        }
      ],
      "name": "CharacterDataUpdated",
      "type": "event"
    },
    {
      "anonymous": false,
      "inputs": [
        {
          "indexed": true,
          "internalType": "bytes32",
          "name": "characterHash",
          "type": "bytes32"
        }
      ],
      "name": "CharacterRemoved",
      "type": "event"
    },
    {
      "anonymous": false,
      "inputs": [],
      "name": "ContractKilled",
      "type": "event"
    },
    {
      "anonymous": false,
      "inputs": [
        {
          "indexed": false,
          "internalType": "uint256",
          "name": "oldValue",
          "type": "uint256"
        },
        {
          "indexed": false,
          "internalType": "uint256",
          "name": "newValue",
          "type": "uint256"
        }
      ],
      "name": "EldDiscountChanged",
      "type": "event"
    },
    {
      "anonymous": false,
      "inputs": [
        {
          "indexed": false,
          "internalType": "address",
          "name": "oldValue",
          "type": "address"
        },
        {
          "indexed": false,
          "internalType": "address",
          "name": "newValue",
          "type": "address"
        }
      ],
      "name": "EldInstanceChanged",
      "type": "event"
    },
    {
      "anonymous": false,
      "inputs": [
        {
          "indexed": false,
          "internalType": "uint256",
          "name": "oldValue",
          "type": "uint256"
        },
        {
          "indexed": false,
          "internalType": "uint256",
          "name": "newValue",
          "type": "uint256"
        }
      ],
      "name": "EldKickbackChanged",
      "type": "event"
    },
    {
      "anonymous": false,
      "inputs": [
        {
          "indexed": false,
          "internalType": "address",
          "name": "oldValue",
          "type": "address"
        },
        {
          "indexed": false,
          "internalType": "address",
          "name": "newValue",
          "type": "address"
        }
      ],
      "name": "NftInstanceChanged",
      "type": "event"
    },
    {
      "anonymous": false,
      "inputs": [
        {
          "indexed": false,
          "internalType": "address",
          "name": "oldValue",
          "type": "address"
        },
        {
          "indexed": false,
          "internalType": "address",
          "name": "newValue",
          "type": "address"
        }
      ],
      "name": "PriceResolverInstanceChanged",
      "type": "event"
    },
    {
      "anonymous": false,
      "inputs": [
        {
          "indexed": true,
          "internalType": "bytes32",
          "name": "role",
          "type": "bytes32"
        },
        {
          "indexed": true,
          "internalType": "bytes32",
          "name": "previousAdminRole",
          "type": "bytes32"
        },
        {
          "indexed": true,
          "internalType": "bytes32",
          "name": "newAdminRole",
          "type": "bytes32"
        }
      ],
      "name": "RoleAdminChanged",
      "type": "event"
    },
    {
      "anonymous": false,
      "inputs": [
        {
          "indexed": true,
          "internalType": "bytes32",
          "name": "role",
          "type": "bytes32"
        },
        {
          "indexed": true,
          "internalType": "address",
          "name": "account",
          "type": "address"
        },
        {
          "indexed": true,
          "internalType": "address",
          "name": "sender",
          "type": "address"
        }
      ],
      "name": "RoleGranted",
      "type": "event"
    },
    {
      "anonymous": false,
      "inputs": [
        {
          "indexed": true,
          "internalType": "bytes32",
          "name": "role",
          "type": "bytes32"
        },
        {
          "indexed": true,
          "internalType": "address",
          "name": "account",
          "type": "address"
        },
        {
          "indexed": true,
          "internalType": "address",
          "name": "sender",
          "type": "address"
        }
      ],
      "name": "RoleRevoked",
      "type": "event"
    },
    {
      "anonymous": false,
      "inputs": [
        {
          "indexed": false,
          "internalType": "address",
          "name": "oldValue",
          "type": "address"
        },
        {
          "indexed": false,
          "internalType": "address",
          "name": "newValue",
          "type": "address"
        }
      ],
      "name": "StableInstanceChanged",
      "type": "event"
    },
    {
      "anonymous": false,
      "inputs": [
        {
          "indexed": false,
          "internalType": "bool",
          "name": "oldValue",
          "type": "bool"
        },
        {
          "indexed": false,
          "internalType": "bool",
          "name": "newValue",
          "type": "bool"
        }
      ],
      "name": "StoreActiveChanged",
      "type": "event"
    },
    {
      "anonymous": false,
      "inputs": [
        {
          "indexed": true,
          "internalType": "address",
          "name": "tokenAddress",
          "type": "address"
        },
        {
          "indexed": true,
          "internalType": "address",
          "name": "userAddress",
          "type": "address"
        },
        {
          "indexed": false,
          "internalType": "uint256",
          "name": "amount",
          "type": "uint256"
        }
      ],
      "name": "TokensSalvaged",
      "type": "event"
    },
    {
      "anonymous": false,
      "inputs": [
        {
          "indexed": false,
          "internalType": "address",
          "name": "oldValue",
          "type": "address"
        },
        {
          "indexed": false,
          "internalType": "address",
          "name": "newValue",
          "type": "address"
        }
      ],
      "name": "VaultAddressChanged",
      "type": "event"
    },
    {
      "inputs": [],
      "name": "DEFAULT_ADMIN_ROLE",
      "outputs": [
        {
          "internalType": "bytes32",
          "name": "",
          "type": "bytes32"
        }
      ],
      "stateMutability": "view",
      "type": "function"
    },
    {
      "inputs": [],
      "name": "MODERATOR_ROLE",
      "outputs": [
        {
          "internalType": "bytes32",
          "name": "",
          "type": "bytes32"
        }
      ],
      "stateMutability": "view",
      "type": "function"
    },
    {
      "inputs": [
        {
          "internalType": "string",
          "name": "name_",
          "type": "string"
        },
        {
          "internalType": "bytes32",
          "name": "characterHash_",
          "type": "bytes32"
        },
        {
          "internalType": "uint256",
          "name": "price_",
          "type": "uint256"
        },
        {
          "internalType": "bool",
          "name": "active_",
          "type": "bool"
        }
      ],
      "name": "addCharacter",
      "outputs": [],
      "stateMutability": "nonpayable",
      "type": "function"
    },
    {
      "inputs": [
        {
          "internalType": "bytes32",
          "name": "characterHash_",
          "type": "bytes32"
        }
      ],
      "name": "buyWithEld",
      "outputs": [],
      "stateMutability": "nonpayable",
      "type": "function"
    },
    {
      "inputs": [
        {
          "internalType": "bytes32",
          "name": "characterHash_",
          "type": "bytes32"
        }
      ],
      "name": "buyWithStable",
      "outputs": [],
      "stateMutability": "nonpayable",
      "type": "function"
    },
    {
      "inputs": [
        {
          "internalType": "bytes32",
          "name": "characterHash_",
          "type": "bytes32"
        },
        {
          "internalType": "uint8",
          "name": "paramId_",
          "type": "uint8"
        },
        {
          "internalType": "bytes",
          "name": "paramData_",
          "type": "bytes"
        }
      ],
      "name": "editCharacter",
      "outputs": [],
      "stateMutability": "nonpayable",
      "type": "function"
    },
    {
      "inputs": [],
      "name": "getAvaliableCharacters",
      "outputs": [
        {
          "internalType": "bytes32[]",
          "name": "",
          "type": "bytes32[]"
        }
      ],
      "stateMutability": "view",
      "type": "function"
    },
    {
      "inputs": [
        {
          "internalType": "bytes32",
          "name": "characterHash_",
          "type": "bytes32"
        }
      ],
      "name": "getCharacter",
      "outputs": [
        {
          "components": [
            {
              "internalType": "string",
              "name": "name",
              "type": "string"
            },
            {
              "internalType": "uint256",
              "name": "storeId",
              "type": "uint256"
            },
            {
              "internalType": "bytes32",
              "name": "characterHash",
              "type": "bytes32"
            },
            {
              "internalType": "uint256",
              "name": "price",
              "type": "uint256"
            },
            {
              "internalType": "bool",
              "name": "active",
              "type": "bool"
            }
          ],
          "internalType": "struct ICharacterStoreContract.CharacterDataResult",
          "name": "",
          "type": "tuple"
        }
      ],
      "stateMutability": "view",
      "type": "function"
    },
    {
      "inputs": [
        {
          "internalType": "bytes32",
          "name": "characterHash_",
          "type": "bytes32"
        }
      ],
      "name": "getCharacterEldKickback",
      "outputs": [
        {
          "internalType": "uint256",
          "name": "eldAmount",
          "type": "uint256"
        }
      ],
      "stateMutability": "view",
      "type": "function"
    },
    {
      "inputs": [
        {
          "internalType": "bytes32",
          "name": "characterHash_",
          "type": "bytes32"
        }
      ],
      "name": "getCharacterEldPrice",
      "outputs": [
        {
          "internalType": "uint256",
          "name": "priceInEld",
          "type": "uint256"
        }
      ],
      "stateMutability": "view",
      "type": "function"
    },
    {
      "inputs": [
        {
          "internalType": "uint256",
          "name": "page_",
          "type": "uint256"
        },
        {
          "internalType": "uint256",
          "name": "pageSize_",
          "type": "uint256"
        },
        {
          "internalType": "bool",
          "name": "activeOnly_",
          "type": "bool"
        }
      ],
      "name": "getCharacters",
      "outputs": [
        {
          "components": [
            {
              "internalType": "string",
              "name": "name",
              "type": "string"
            },
            {
              "internalType": "uint256",
              "name": "storeId",
              "type": "uint256"
            },
            {
              "internalType": "bytes32",
              "name": "characterHash",
              "type": "bytes32"
            },
            {
              "internalType": "uint256",
              "name": "price",
              "type": "uint256"
            },
            {
              "internalType": "bool",
              "name": "active",
              "type": "bool"
            }
          ],
          "internalType": "struct ICharacterStoreContract.CharacterDataResult[]",
          "name": "",
          "type": "tuple[]"
        }
      ],
      "stateMutability": "view",
      "type": "function"
    },
    {
      "inputs": [],
      "name": "getEldDiscount",
      "outputs": [
        {
          "internalType": "uint8",
          "name": "",
          "type": "uint8"
        }
      ],
      "stateMutability": "view",
      "type": "function"
    },
    {
      "inputs": [],
      "name": "getEldKickback",
      "outputs": [
        {
          "internalType": "uint8",
          "name": "",
          "type": "uint8"
        }
      ],
      "stateMutability": "view",
      "type": "function"
    },
    {
      "inputs": [],
      "name": "getEldTokenAddress",
      "outputs": [
        {
          "internalType": "address",
          "name": "",
          "type": "address"
        }
      ],
      "stateMutability": "view",
      "type": "function"
    },
    {
      "inputs": [],
      "name": "getNftAddress",
      "outputs": [
        {
          "internalType": "address",
          "name": "",
          "type": "address"
        }
      ],
      "stateMutability": "view",
      "type": "function"
    },
    {
      "inputs": [],
      "name": "getPriceResolverAddress",
      "outputs": [
        {
          "internalType": "address",
          "name": "",
          "type": "address"
        }
      ],
      "stateMutability": "view",
      "type": "function"
    },
    {
      "inputs": [
        {
          "internalType": "bytes32",
          "name": "role",
          "type": "bytes32"
        }
      ],
      "name": "getRoleAdmin",
      "outputs": [
        {
          "internalType": "bytes32",
          "name": "",
          "type": "bytes32"
        }
      ],
      "stateMutability": "view",
      "type": "function"
    },
    {
      "inputs": [
        {
          "internalType": "bytes32",
          "name": "role",
          "type": "bytes32"
        },
        {
          "internalType": "uint256",
          "name": "index",
          "type": "uint256"
        }
      ],
      "name": "getRoleMember",
      "outputs": [
        {
          "internalType": "address",
          "name": "",
          "type": "address"
        }
      ],
      "stateMutability": "view",
      "type": "function"
    },
    {
      "inputs": [
        {
          "internalType": "bytes32",
          "name": "role",
          "type": "bytes32"
        }
      ],
      "name": "getRoleMemberCount",
      "outputs": [
        {
          "internalType": "uint256",
          "name": "",
          "type": "uint256"
        }
      ],
      "stateMutability": "view",
      "type": "function"
    },
    {
      "inputs": [],
      "name": "getStableAddress",
      "outputs": [
        {
          "internalType": "address",
          "name": "",
          "type": "address"
        }
      ],
      "stateMutability": "view",
      "type": "function"
    },
    {
      "inputs": [],
      "name": "getStoreActive",
      "outputs": [
        {
          "internalType": "bool",
          "name": "",
          "type": "bool"
        }
      ],
      "stateMutability": "view",
      "type": "function"
    },
    {
      "inputs": [],
      "name": "getVaultAddress",
      "outputs": [
        {
          "internalType": "address",
          "name": "",
          "type": "address"
        }
      ],
      "stateMutability": "view",
      "type": "function"
    },
    {
      "inputs": [
        {
          "internalType": "bytes32",
          "name": "role",
          "type": "bytes32"
        },
        {
          "internalType": "address",
          "name": "account",
          "type": "address"
        }
      ],
      "name": "grantRole",
      "outputs": [],
      "stateMutability": "nonpayable",
      "type": "function"
    },
    {
      "inputs": [
        {
          "internalType": "bytes32",
          "name": "role",
          "type": "bytes32"
        },
        {
          "internalType": "address",
          "name": "account",
          "type": "address"
        }
      ],
      "name": "hasRole",
      "outputs": [
        {
          "internalType": "bool",
          "name": "",
          "type": "bool"
        }
      ],
      "stateMutability": "view",
      "type": "function"
    },
    {
      "inputs": [
        {
          "internalType": "address",
          "name": "defaultAdminAddress_",
          "type": "address"
        },
        {
          "internalType": "address",
          "name": "moderatorAddress_",
          "type": "address"
        },
        {
          "internalType": "address",
          "name": "vaultAddress_",
          "type": "address"
        },
        {
          "internalType": "address",
          "name": "priceResolverAddress_",
          "type": "address"
        },
        {
          "internalType": "address",
          "name": "eldAddress_",
          "type": "address"
        },
        {
          "internalType": "address",
          "name": "nftAddress_",
          "type": "address"
        },
        {
          "internalType": "address",
          "name": "stableAddress_",
          "type": "address"
        },
        {
          "internalType": "uint8",
          "name": "eldDiscount_",
          "type": "uint8"
        },
        {
          "internalType": "uint8",
          "name": "eldKickback_",
          "type": "uint8"
        }
      ],
      "name": "init",
      "outputs": [],
      "stateMutability": "nonpayable",
      "type": "function"
    },
    {
      "inputs": [],
      "name": "isInitialised",
      "outputs": [
        {
          "internalType": "bool",
          "name": "",
          "type": "bool"
        }
      ],
      "stateMutability": "view",
      "type": "function"
    },
    {
      "inputs": [],
      "name": "killContract",
      "outputs": [],
      "stateMutability": "nonpayable",
      "type": "function"
    },
    {
      "inputs": [
        {
          "internalType": "bytes32",
          "name": "characterHash_",
          "type": "bytes32"
        }
      ],
      "name": "removeCharacter",
      "outputs": [],
      "stateMutability": "nonpayable",
      "type": "function"
    },
    {
      "inputs": [
        {
          "internalType": "bytes32",
          "name": "role",
          "type": "bytes32"
        },
        {
          "internalType": "address",
          "name": "account",
          "type": "address"
        }
      ],
      "name": "renounceRole",
      "outputs": [],
      "stateMutability": "nonpayable",
      "type": "function"
    },
    {
      "inputs": [
        {
          "internalType": "bytes32",
          "name": "role",
          "type": "bytes32"
        },
        {
          "internalType": "address",
          "name": "account",
          "type": "address"
        }
      ],
      "name": "revokeRole",
      "outputs": [],
      "stateMutability": "nonpayable",
      "type": "function"
    },
    {
      "inputs": [
        {
          "internalType": "address",
          "name": "tokenAddress_",
          "type": "address"
        },
        {
          "internalType": "address",
          "name": "to_",
          "type": "address"
        },
        {
          "internalType": "uint256",
          "name": "amount_",
          "type": "uint256"
        }
      ],
      "name": "salvageTokensFromContract",
      "outputs": [],
      "stateMutability": "nonpayable",
      "type": "function"
    },
    {
      "inputs": [
        {
          "internalType": "uint8",
          "name": "eldDiscount_",
          "type": "uint8"
        }
      ],
      "name": "setEldDiscount",
      "outputs": [],
      "stateMutability": "nonpayable",
      "type": "function"
    },
    {
      "inputs": [
        {
          "internalType": "address",
          "name": "eldAddress_",
          "type": "address"
        }
      ],
      "name": "setEldInstance",
      "outputs": [],
      "stateMutability": "nonpayable",
      "type": "function"
    },
    {
      "inputs": [
        {
          "internalType": "uint8",
          "name": "eldKickback_",
          "type": "uint8"
        }
      ],
      "name": "setEldKickback",
      "outputs": [],
      "stateMutability": "nonpayable",
      "type": "function"
    },
    {
      "inputs": [
        {
          "internalType": "address",
          "name": "nftAddress_",
          "type": "address"
        }
      ],
      "name": "setNftInstance",
      "outputs": [],
      "stateMutability": "nonpayable",
      "type": "function"
    },
    {
      "inputs": [
        {
          "internalType": "address",
          "name": "priceResolverAddress_",
          "type": "address"
        }
      ],
      "name": "setPriceResolverInstance",
      "outputs": [],
      "stateMutability": "nonpayable",
      "type": "function"
    },
    {
      "inputs": [
        {
          "internalType": "address",
          "name": "stableAddress_",
          "type": "address"
        }
      ],
      "name": "setStableInstance",
      "outputs": [],
      "stateMutability": "nonpayable",
      "type": "function"
    },
    {
      "inputs": [
        {
          "internalType": "bool",
          "name": "active_",
          "type": "bool"
        }
      ],
      "name": "setStoreActive",
      "outputs": [],
      "stateMutability": "nonpayable",
      "type": "function"
    },
    {
      "inputs": [
        {
          "internalType": "address",
          "name": "vaultAddress_",
          "type": "address"
        }
      ],
      "name": "setVaultAddress",
      "outputs": [],
      "stateMutability": "nonpayable",
      "type": "function"
    },
    {
      "inputs": [
        {
          "internalType": "bytes4",
          "name": "interfaceId_",
          "type": "bytes4"
        }
      ],
      "name": "supportsInterface",
      "outputs": [
        {
          "internalType": "bool",
          "name": "",
          "type": "bool"
        }
      ],
      "stateMutability": "view",
      "type": "function"
    }
  ],
  "transactionHash": "0x212ad3b0d62c45de5913fcd9194b04c798794f6c387c6f4153d3702026aa0739",
  "args": [],
  "numDeployments": 1,
  "solcInputHash": "48d7e25234db534debec17b02098739f",
  "bytecode": "0x60806040523480156200001157600080fd5b50600160009081556200002590336200002b565b62000169565b6200004282826200006e60201b620029b91760201c565b60008281526002602090815260409091206200006991839062002a24620000f7821b17901c565b505050565b60008281526001602090815260408083206001600160a01b038516845290915290205460ff16620000f35760008281526001602081815260408084206001600160a01b0386168086529252808420805460ff19169093179092559051339285917f2f8788117e7eff1d82e926ec794901d17c78024a50270940304540a733656f0d9190a45b5050565b60006200010e836001600160a01b03841662000117565b90505b92915050565b6000818152600183016020526040812054620001605750815460018181018455600084815260208082209093018490558454848252828601909352604090209190915562000111565b50600062000111565b613f2180620001796000396000f3fe608060405234801561001057600080fd5b50600436106102485760003560e01c80639010d07c1161013b578063be9a71bd116100b8578063d547741f1161007c578063d547741f1461053a578063e3a728061461054d578063e674f1e014610560578063f581514414610573578063ffdb0c8f1461058457600080fd5b8063be9a71bd146104d0578063c8c54dae146104e1578063ca15c873146104f4578063cdf3a30c14610507578063d15f12271461051a57600080fd5b8063a217fddf116100ff578063a217fddf1461047c578063a2da9fc214610484578063a3e8ae3a14610499578063ac32cb62146104ac578063b29ad298146104bf57600080fd5b80639010d07c1461041e57806391d14854146104315780639dcdfe9f146104445780639ed3c90c14610457578063a0929cda1461046957600080fd5b806336568abe116101c957806365cacaa41161018d57806365cacaa4146103bf578063797669c9146103d057806385535cc5146103e5578063872bd62e146103f857806387a0ee6c1461040b57600080fd5b806336568abe1461034f578063418b66d0146103625780635a2dca9b146103745780635b25d4b91461039957806361aa62e0146103ac57600080fd5b8063248a9ca311610210578063248a9ca3146102b757806325c53589146102e95780632a8b7feb146102fc5780632f1b343f1461031c5780632f2ff15d1461033c57600080fd5b806301ffc9a71461024d578063031eaaf11461027557806305beab171461028a57806314e5d7d31461029c5780631c02708d146102af575b600080fd5b61026061025b366004613440565b610597565b60405190151581526020015b60405180910390f35b610288610283366004613486565b6105c2565b005b600754600160b01b900460ff16610260565b6102886102aa3660046134b2565b61067b565b6102886107af565b6102db6102c536600461355a565b6000908152600160208190526040909120015490565b60405190815260200161026c565b6102db6102f736600461355a565b6107e6565b61030f61030a366004613581565b610a35565b60405161026c919061365d565b600754600160a01b900460ff165b60405160ff909116815260200161026c565b61028861034a3660046136bf565b610cb0565b61028861035d3660046136bf565b610cdb565b600754600160a81b900460ff1661032a565b6004546001600160a01b03165b6040516001600160a01b03909116815260200161026c565b6102886103a7366004613798565b610d59565b6102886103ba36600461355a565b611450565b6006546001600160a01b0316610381565b6102db600080516020613ecc83398151915281565b6102886103f3366004613486565b611661565b610288610406366004613486565b611711565b610288610419366004613803565b6117c1565b61038161042c366004613820565b6118d1565b61026061043f3660046136bf565b6118e9565b61028861045236600461355a565b611914565b600754600160b81b900460ff16610260565b610288610477366004613842565b611d45565b6102db600081565b61048c611ee1565b60405161026c919061387e565b6102db6104a736600461355a565b611f39565b6102886104ba366004613486565b61217f565b6003546001600160a01b0316610381565b6005546001600160a01b0316610381565b6102886104ef3660046138c2565b61222f565b6102db61050236600461355a565b6123c0565b610288610515366004613939565b6123d7565b61052d61052836600461355a565b6124da565b60405161026c9190613954565b6102886105483660046136bf565b612624565b61028861055b36600461355a565b61264a565b61028861056e366004613486565b612806565b6007546001600160a01b0316610381565b610288610592366004613939565b6128b6565b60006001600160e01b03198216634f338f4360e01b14806105bc57506105bc82612a39565b92915050565b600080516020613ecc8339815191526105da81612a5e565b6005546001600160a01b03838116911614156106115760405162461bcd60e51b815260040161060890613967565b60405180910390fd5b600554604080516001600160a01b03928316815291841660208301527f1ef4f9da91d4f3b0b261f426b01f6437b2465f773a568cc3b1d5f5b5581134bc910160405180910390a150600580546001600160a01b0319166001600160a01b0392909216919091179055565b600061068681612a5e565b600754600160b81b900460ff16156106e05760405162461bcd60e51b815260206004820181905260248201527f436f6e747261637420697320616c726561647920696e697469616c69736564216044820152606401610608565b6106eb60008b612a68565b610703600080516020613ecc8339815191528a612a68565b600680546001600160a01b03199081166001600160a01b038b8116919091179092556003805482168a84161790556004805482168984161790556005805490911687831617905560078054600160b81b9287166001600160a81b031990911617600160a01b60ff878116919091029190911762ff00ff60a81b1916600160a81b9186169190910260ff60b81b1916179190911790556107a3600033612a8a565b50505050505050505050565b60006107ba81612a5e565b6040517f57ba5b229dec138f5bae2e9a20b8035310ff14ea10b05bdbfa410625f867c79190600090a133ff5b600081815260096020526040808220815160c081019092528054839291908290829061081190613996565b80601f016020809104026020016040519081016040528092919081815260200182805461083d90613996565b801561088a5780601f1061085f5761010080835404028352916020019161088a565b820191906000526020600020905b81548152906001019060200180831161086d57829003601f168201915b505050918352505060018201546020820152600282015460408201526003820154606082015260049091015460ff8082161515608084015261010090910416151560a0918201528101519091506108f35760405162461bcd60e51b8152600401610608906139d1565b80608001516109145760405162461bcd60e51b815260040161060890613a08565b6003546040805163ec9e039360e01b815290516000926001600160a01b03169163ec9e0393916004808301926020929190829003018186803b15801561095957600080fd5b505afa15801561096d573d6000803e3d6000fd5b505050506040513d601f19601f820116820180604052508101906109919190613a3f565b90506000600360009054906101000a90046001600160a01b03166001600160a01b0316637a5b5a1d6040518163ffffffff1660e01b815260040160206040518083038186803b1580156109e357600080fd5b505afa1580156109f7573d6000803e3d6000fd5b505050506040513d601f19601f82011682018060405250810190610a1b9190613a3f565b9050610a2c83606001518383612aac565b95945050505050565b6060600083610a45600187613a6e565b610a4f9190613a85565b600854909150808210610a97576040805160008082526020820190925290610a8d565b610a7a6132c2565b815260200190600190039081610a725790505b5092505050610ca9565b6000808667ffffffffffffffff811115610ab357610ab36136eb565b604051908082528060200260200182016040528015610aec57816020015b610ad96132c2565b815260200190600190039081610ad15790505b509050835b83811015610bd2576000878015610b3d57506009600060088481548110610b1a57610b1a613aa4565b6000918252602080832090910154835282019290925260400190206004015460ff165b80610b46575087155b15610b9357610b7160088381548110610b6157610b61613aa4565b90600052602060002001546124da565b838581518110610b8357610b83613aa4565b6020026020010181905250600190505b88610b9f856001613aba565b1415610bab5750610bd2565b8015610bbf5783610bbb81613ad2565b9450505b5080610bca81613ad2565b915050610af1565b5086610bdf836001613aba565b1015610c9e5760008267ffffffffffffffff811115610c0057610c006136eb565b604051908082528060200260200182016040528015610c3957816020015b610c266132c2565b815260200190600190039081610c1e5790505b50905060005b83811015610c9157828181518110610c5957610c59613aa4565b6020026020010151828281518110610c7357610c73613aa4565b60200260200101819052508080610c8990613ad2565b915050610c3f565b509450610ca99350505050565b9350610ca992505050565b9392505050565b60008281526001602081905260409091200154610ccc81612a5e565b610cd68383612a68565b505050565b6001600160a01b0381163314610d4b5760405162461bcd60e51b815260206004820152602f60248201527f416363657373436f6e74726f6c3a2063616e206f6e6c792072656e6f756e636560448201526e103937b632b9903337b91039b2b63360891b6064820152608401610608565b610d558282612a8a565b5050565b600080516020613ecc833981519152610d7181612a5e565b600084815260096020526040902060040154610100900460ff16610da75760405162461bcd60e51b8152600401610608906139d1565b60ff8316610e7a57600082806020019051810190610dc59190613aed565b600086815260096020908152604080832090519394509192610de8929101613b5b565b6040516020818303038152906040529050838051906020012081805190602001201415610e275760405162461bcd60e51b815260040161060890613c03565b8460ff1686600080516020613eac8339815191528387604051610e4b929190613c32565b60405180910390a360008681526009602090815260409091208351610e72928501906132f6565b50505061144a565b60018360ff16141561106557600082806020019051810190610e9c9190613a3f565b600086815260096020526040902060010154600854919250908210610f035760405162461bcd60e51b815260206004820152601760248201527f4e6577206964206973206f7574206f662072616e6765210000000000000000006044820152606401610608565b80821415610f235760405162461bcd60e51b815260040161060890613c03565b600060088381548110610f3857610f38613aa4565b90600052602060002001549050600060088381548110610f5a57610f5a613aa4565b906000526020600020015490508660ff1682600080516020613eac83398151915285604051602001610f8e91815260200190565b60408051601f1981840301815290829052610faa918b90613c32565b60405180910390a38660ff1681600080516020613eac8339815191528886604051602001610fda91815260200190565b60408051601f1981840301815290829052610ff59291613c32565b60405180910390a3816008848154811061101157611011613aa4565b9060005260206000200181905550806008858154811061103357611033613aa4565b60009182526020808320909101929092559283526009905260408083206001908101949094559082529020015561144a565b60028360ff161415611254576000828060200190518101906110879190613a3f565b600081815260096020526040902060040154909150610100900460ff16156110f15760405162461bcd60e51b815260206004820152601f60248201527f43686172616374657220697320616c7265616479206176616c6961626c6521006044820152606401610608565b8360ff1685600080516020613eac8339815191528760405160200161111891815260200190565b60408051601f1981840301815290829052611134918890613c32565b60405180910390a360008581526009602052604090206001015460088054839290811061116357611163613aa4565b600091825260208083209091019290925586815260099091526040808220838352912081548190839061119590613996565b6111a092919061337a565b506001828101549082015560028083015481830155600380840154908301556004928301805493909201805460ff948516151560ff19821681178355935461010090819004909516151590940261ff001990931661ffff1990941693909317919091179091556000828152600960205260408082209092018390558681529081209061122c82826133f5565b50600060018201819055600282018190556003820155600401805461ffff191690555061144a565b60038360ff161415611322576000828060200190518101906112769190613a3f565b6000868152600960205260409020600301549091508114156112aa5760405162461bcd60e51b815260040161060890613c03565b8360ff1685600080516020613eac83398151915285600960008a8152602001908152602001600020600301546040516020016112e891815260200190565b60408051601f19818403018152908290526113039291613c32565b60405180910390a360008581526009602052604090206003015561144a565b60048360ff16141561140b576000828060200190518101906113449190613c57565b60008681526009602052604090206004015490915060ff161515811515141561137f5760405162461bcd60e51b815260040161060890613c03565b60008581526009602090815260409182902060040154915160ff808816938993600080516020613eac8339815191529389936113c393169101901515815260200190565b60408051601f19818403018152908290526113de9291613c32565b60405180910390a36000858152600960205260409020600401805460ff191691151591909117905561144a565b60405162461bcd60e51b815260206004820152601460248201527314185c985b48191bd95cc81b9bdd08195e1a5cdd60621b6044820152606401610608565b50505050565b600080516020613ecc83398151915261146881612a5e565b600082815260096020526040902060040154610100900460ff1661149e5760405162461bcd60e51b8152600401610608906139d1565b6008546000906114b090600190613a6e565b60008481526009602052604090206001015490915081146115cc576000600882815481106114e0576114e0613aa4565b90600052602060002001549050600060096000868152602001908152602001600020600101549050846008848154811061151c5761151c613aa4565b9060005260206000200181905550816008828154811061153e5761153e613aa4565b6000918252602080832091909101929092558681526009825260408082206001908101879055858352918190208201849055805192830184905290918791600080516020613eac833981519152910160408051601f1981840301815282825260208301899052910160408051601f19818403018152908290526115c19291613c32565b60405180910390a350505b60088054806115dd576115dd613c74565b60008281526020808220830160001990810183905590920190925584825260099052604081209061160e82826133f5565b5060006001820181905560028201819055600382018190556004909101805461ffff1916905560405184917f9d2baf855a82b9ade3c757b5b23166f2704a0a890332c3996f86482ced2edc3691a2505050565b600080516020613ecc83398151915261167981612a5e565b6006546001600160a01b03838116911614156116a75760405162461bcd60e51b815260040161060890613967565b600654604080516001600160a01b03928316815291841660208301527fa4f45a63389e7031375b7e4422cccea56ab403ecedbd3ce1f0587acaa1999ae3910160405180910390a150600680546001600160a01b0319166001600160a01b0392909216919091179055565b600080516020613ecc83398151915261172981612a5e565b6004546001600160a01b03838116911614156117575760405162461bcd60e51b815260040161060890613967565b600454604080516001600160a01b03928316815291841660208301527f4be3cf9acbd272e5cb42afb5d0efa1cd26b618eccc2ae3750657d4d558d38b2b910160405180910390a150600480546001600160a01b0319166001600160a01b0392909216919091179055565b600080516020613ecc8339815191526117d981612a5e565b60075460ff600160b01b909104161515821515141561180a5760405162461bcd60e51b815260040161060890613967565b811561186957600754600160b81b900460ff166118695760405162461bcd60e51b815260206004820152601c60248201527f436f6e7472616374206973206e6f7420696e697469616c6973656421000000006044820152606401610608565b60075460408051600160b01b90920460ff161515825283151560208301527f2c72ac42fdd9ac54e679d91c2ec0aef5d43f3aa87031ede92d796fd5cdfb0370910160405180910390a15060078054911515600160b01b0260ff60b01b19909216919091179055565b6000828152600260205260408120610ca99083612ae6565b60009182526001602090815260408084206001600160a01b0393909316845291905290205460ff1690565b61191c612af2565b600754600160b01b900460ff166119685760405162461bcd60e51b815260206004820152601060248201526f53746f726520697320636c6f7365642160801b6044820152606401610608565b600081815260096020526040808220815160c0810190925280548290829061198f90613996565b80601f01602080910402602001604051908101604052809291908181526020018280546119bb90613996565b8015611a085780601f106119dd57610100808354040283529160200191611a08565b820191906000526020600020905b8154815290600101906020018083116119eb57829003601f168201915b505050918352505060018201546020820152600282015460408201526003820154606082015260049091015460ff8082161515608084015261010090910416151560a091820152810151909150611a715760405162461bcd60e51b8152600401610608906139d1565b8060800151611a925760405162461bcd60e51b815260040161060890613a08565b600754611abc906001600160a01b03163360065460608501516001600160a01b0390911690612b4c565b6005546001600160a01b03166367d51cc4336040516001600160e01b031960e084901b1681526001600160a01b03909116600482015260248101859052604401602060405180830381600087803b158015611b1657600080fd5b505af1158015611b2a573d6000803e3d6000fd5b505050506040513d601f19601f82011682018060405250810190611b4e9190613a3f565b506007546060820151604080516001600160a01b03909316835260208301919091528051339285927f2186723525ab485cb893185186d1424e5d616ce96c8c19dc6ce99e4d32b106f592918290030190a36003546040805163ec9e039360e01b815290516000926001600160a01b03169163ec9e0393916004808301926020929190829003018186803b158015611be457600080fd5b505afa158015611bf8573d6000803e3d6000fd5b505050506040513d601f19601f82011682018060405250810190611c1c9190613a3f565b90506000600360009054906101000a90046001600160a01b03166001600160a01b0316637a5b5a1d6040518163ffffffff1660e01b815260040160206040518083038186803b158015611c6e57600080fd5b505afa158015611c82573d6000803e3d6000fd5b505050506040513d601f19601f82011682018060405250810190611ca69190613a3f565b90506000611cb984606001518484612ba6565b90508015611d34576004546001600160a01b031663a1448194336040516001600160e01b031960e084901b1681526001600160a01b03909116600482015260248101849052604401600060405180830381600087803b158015611d1b57600080fd5b505af1158015611d2f573d6000803e3d6000fd5b505050505b50505050611d426001600055565b50565b6000611d5081612a5e565b604080518082018252601981527f7472616e7366657228616464726573732c75696e74323536290000000000000060209182015281516001600160a01b0386169181019190915280820184905281518082038301815260608201909252600091611ddf917fa9059cbb2ab09eb219583f4a59a5d0623ade346d962bcd4e46b11da047c9049b9190608001613c8a565b60405160208183030381529060405290506000856001600160a01b031682604051611e0a9190613cbb565b6000604051808303816000865af19150503d8060008114611e47576040519150601f19603f3d011682016040523d82523d6000602084013e611e4c565b606091505b5050905080611e8c5760405162461bcd60e51b815260206004820152600c60248201526b43616c6c206661696c65642160a01b6044820152606401610608565b846001600160a01b0316866001600160a01b03167fc00a88ee4656f9bf9caef53a29be902b0017cf1e454eaed6526c08b8c2e106cf86604051611ed191815260200190565b60405180910390a3505050505050565b60606008805480602002602001604051908101604052809291908181526020018280548015611f2f57602002820191906000526020600020905b815481526020019060010190808311611f1b575b5050505050905090565b600081815260096020526040808220815160c0810190925280548392919082908290611f6490613996565b80601f0160208091040260200160405190810160405280929190818152602001828054611f9090613996565b8015611fdd5780601f10611fb257610100808354040283529160200191611fdd565b820191906000526020600020905b815481529060010190602001808311611fc057829003601f168201915b505050918352505060018201546020820152600282015460408201526003820154606082015260049091015460ff8082161515608084015261010090910416151560a0918201528101519091506120465760405162461bcd60e51b8152600401610608906139d1565b80608001516120675760405162461bcd60e51b815260040161060890613a08565b6003546040805163ec9e039360e01b815290516000926001600160a01b03169163ec9e0393916004808301926020929190829003018186803b1580156120ac57600080fd5b505afa1580156120c0573d6000803e3d6000fd5b505050506040513d601f19601f820116820180604052508101906120e49190613a3f565b90506000600360009054906101000a90046001600160a01b03166001600160a01b0316637a5b5a1d6040518163ffffffff1660e01b815260040160206040518083038186803b15801561213657600080fd5b505afa15801561214a573d6000803e3d6000fd5b505050506040513d601f19601f8201168201806040525081019061216e9190613a3f565b9050610a2c83606001518383612ba6565b600080516020613ecc83398151915261219781612a5e565b6003546001600160a01b03838116911614156121c55760405162461bcd60e51b815260040161060890613967565b600354604080516001600160a01b03928316815291841660208301527fe10eeb9be10e1525a4281be32ba4ca78181b1f10ad12e61e2cc6ea5eb19bbf4e910160405180910390a150600380546001600160a01b0319166001600160a01b0392909216919091179055565b600080516020613ecc83398151915261224781612a5e565b600084815260096020526040902060040154610100900460ff16156122ae5760405162461bcd60e51b815260206004820152601f60248201527f43686172616374657220697320616c7265616479206176616c6961626c6521006044820152606401610608565b6040805160c081018252868152600854602080830191909152818301879052606082018690528415156080830152600160a083015260008781526009825292909220815180519293919261230592849201906132f6565b50602082015160018083019190915560408084015160028401556060840151600384015560808401516004909301805460a09095015115156101000261ff00199415159490941661ffff19909516949094179290921790925560088054928301815560009081527ff3f7a9fe364faab93b216da50a3214154f22a0a2b415b23a84c8169e8b636ee39092018690555185917f481804139f27a13d67f90159c541854c62188fd0702fe2b36c6bf68cafda0f8d91a25050505050565b60008181526002602052604081206105bc90612bff565b600080516020613ecc8339815191526123ef81612a5e565b60075460ff838116600160a81b90920416141561241e5760405162461bcd60e51b815260040161060890613967565b60648260ff16106124715760405162461bcd60e51b815260206004820152601d60248201527f56616c7565206d757374206265206c6f776572207468616e20313030210000006044820152606401610608565b6007546040805160ff600160a81b9093048316815291841660208301527f7fc47970f0efc93356352e3578a559c75e78d3a9720868e9e0d635d0fcdecd3e910160405180910390a1506007805460ff909216600160a81b0260ff60a81b19909216919091179055565b6124e26132c2565b600082815260096020526040808220815160c0810190925280548290829061250990613996565b80601f016020809104026020016040519081016040528092919081815260200182805461253590613996565b80156125825780601f1061255757610100808354040283529160200191612582565b820191906000526020600020905b81548152906001019060200180831161256557829003601f168201915b505050918352505060018201546020820152600282015460408201526003820154606082015260049091015460ff8082161515608084015261010090910416151560a0918201528101519091506125eb5760405162461bcd60e51b8152600401610608906139d1565b6040805160a081018252825181526020808401519082015290810193909352606080820151908401526080908101511515908301525090565b6000828152600160208190526040909120015461264081612a5e565b610cd68383612a8a565b612652612af2565b600754600160b01b900460ff1661269e5760405162461bcd60e51b815260206004820152601060248201526f53746f726520697320636c6f7365642160801b6044820152606401610608565b60006126a9826107e6565b9050600081116126fb5760405162461bcd60e51b815260206004820152601f60248201527f43686172616374657220454c4420707269636520697320696e76616c696421006044820152606401610608565b60045461271e906001600160a01b0316336006546001600160a01b031684612b4c565b6005546001600160a01b03166367d51cc4336040516001600160e01b031960e084901b1681526001600160a01b03909116600482015260248101859052604401602060405180830381600087803b15801561277857600080fd5b505af115801561278c573d6000803e3d6000fd5b505050506040513d601f19601f820116820180604052508101906127b09190613a3f565b50600454604080516001600160a01b039092168252602082018390528051339285927f2186723525ab485cb893185186d1424e5d616ce96c8c19dc6ce99e4d32b106f592918290030190a350611d426001600055565b600080516020613ecc83398151915261281e81612a5e565b6007546001600160a01b038381169116141561284c5760405162461bcd60e51b815260040161060890613967565b600754604080516001600160a01b03928316815291841660208301527fb5d348ed5569c478e77eeda8045a117d807ce9317698c3f01b458631b466f822910160405180910390a150600780546001600160a01b0319166001600160a01b0392909216919091179055565b600080516020613ecc8339815191526128ce81612a5e565b60075460ff838116600160a01b9092041614156128fd5760405162461bcd60e51b815260040161060890613967565b60648260ff16106129505760405162461bcd60e51b815260206004820152601d60248201527f56616c7565206d757374206265206c6f776572207468616e20313030210000006044820152606401610608565b6007546040805160ff600160a01b9093048316815291841660208301527f85f39400b0549bd3e00bf53a53a2db7cc032175818775d68f9259fe7a60a9a30910160405180910390a1506007805460ff909216600160a01b0260ff60a01b19909216919091179055565b6129c382826118e9565b610d555760008281526001602081815260408084206001600160a01b0386168086529252808420805460ff19169093179092559051339285917f2f8788117e7eff1d82e926ec794901d17c78024a50270940304540a733656f0d9190a45050565b6000610ca9836001600160a01b038416612c09565b60006001600160e01b03198216635a05180f60e01b14806105bc57506105bc82612c58565b611d428133612c8d565b612a7282826129b9565b6000828152600260205260409020610cd69082612a24565b612a948282612ce6565b6000828152600260205260409020610cd69082612d4d565b600080612aba83600a613dbb565b612ac5906001613a85565b90508084612ad287612d62565b612adc9190613a85565b610a2c9190613dc7565b6000610ca98383612d98565b60026000541415612b455760405162461bcd60e51b815260206004820152601f60248201527f5265656e7472616e637947756172643a207265656e7472616e742063616c6c006044820152606401610608565b6002600055565b604080516001600160a01b0385811660248301528416604482015260648082018490528251808303909101815260849091019091526020810180516001600160e01b03166323b872dd60e01b17905261144a908590612dc2565b600080612bb483600a613dbb565b612bbf906001613a85565b6007549091508490606490612bdf908890600160a81b900460ff16613a85565b612be99190613dc7565b612bf39190613a85565b9150610a2c8183613dc7565b60006105bc825490565b6000818152600183016020526040812054612c50575081546001818101845560008481526020808220909301849055845484825282860190935260409020919091556105bc565b5060006105bc565b60006001600160e01b03198216637965db0b60e01b14806105bc57506301ffc9a760e01b6001600160e01b03198316146105bc565b612c9782826118e9565b610d5557612ca481612e94565b612caf836020612ea6565b604051602001612cc0929190613de9565b60408051601f198184030181529082905262461bcd60e51b825261060891600401613e5e565b612cf082826118e9565b15610d555760008281526001602090815260408083206001600160a01b0385168085529252808320805460ff1916905551339285917ff6391f5c32d9c69d2a47ea670b442974b53935d1edc7fd64eb21e047a839171b9190a45050565b6000610ca9836001600160a01b038416613042565b6007546000906064908390612d8190600160a01b900460ff1683613e71565b60ff16612d8e9190613a85565b6105bc9190613dc7565b6000826000018281548110612daf57612daf613aa4565b9060005260206000200154905092915050565b6000612e17826040518060400160405280602081526020017f5361666545524332303a206c6f772d6c6576656c2063616c6c206661696c6564815250856001600160a01b03166131359092919063ffffffff16565b805190915015610cd65780806020019051810190612e359190613c57565b610cd65760405162461bcd60e51b815260206004820152602a60248201527f5361666545524332303a204552433230206f7065726174696f6e20646964206e6044820152691bdd081cdd58d8d9595960b21b6064820152608401610608565b60606105bc6001600160a01b03831660145b60606000612eb5836002613a85565b612ec0906002613aba565b67ffffffffffffffff811115612ed857612ed86136eb565b6040519080825280601f01601f191660200182016040528015612f02576020820181803683370190505b509050600360fc1b81600081518110612f1d57612f1d613aa4565b60200101906001600160f81b031916908160001a905350600f60fb1b81600181518110612f4c57612f4c613aa4565b60200101906001600160f81b031916908160001a9053506000612f70846002613a85565b612f7b906001613aba565b90505b6001811115612ff3576f181899199a1a9b1b9c1cb0b131b232b360811b85600f1660108110612faf57612faf613aa4565b1a60f81b828281518110612fc557612fc5613aa4565b60200101906001600160f81b031916908160001a90535060049490941c93612fec81613e94565b9050612f7e565b508315610ca95760405162461bcd60e51b815260206004820181905260248201527f537472696e67733a20686578206c656e67746820696e73756666696369656e746044820152606401610608565b6000818152600183016020526040812054801561312b576000613066600183613a6e565b855490915060009061307a90600190613a6e565b90508181146130df57600086600001828154811061309a5761309a613aa4565b90600052602060002001549050808760000184815481106130bd576130bd613aa4565b6000918252602080832090910192909255918252600188019052604090208390555b85548690806130f0576130f0613c74565b6001900381819060005260206000200160009055905585600101600086815260200190815260200160002060009055600193505050506105bc565b60009150506105bc565b6060613144848460008561314c565b949350505050565b6060824710156131ad5760405162461bcd60e51b815260206004820152602660248201527f416464726573733a20696e73756666696369656e742062616c616e636520666f6044820152651c8818d85b1b60d21b6064820152608401610608565b600080866001600160a01b031685876040516131c99190613cbb565b60006040518083038185875af1925050503d8060008114613206576040519150601f19603f3d011682016040523d82523d6000602084013e61320b565b606091505b509150915061321c87838387613227565b979650505050505050565b6060831561329357825161328c576001600160a01b0385163b61328c5760405162461bcd60e51b815260206004820152601d60248201527f416464726573733a2063616c6c20746f206e6f6e2d636f6e74726163740000006044820152606401610608565b5081613144565b61314483838151156132a85781518083602001fd5b8060405162461bcd60e51b81526004016106089190613e5e565b6040518060a00160405280606081526020016000815260200160008019168152602001600081526020016000151581525090565b82805461330290613996565b90600052602060002090601f016020900481019282613324576000855561336a565b82601f1061333d57805160ff191683800117855561336a565b8280016001018555821561336a579182015b8281111561336a57825182559160200191906001019061334f565b5061337692915061342b565b5090565b82805461338690613996565b90600052602060002090601f0160209004810192826133a8576000855561336a565b82601f106133b9578054855561336a565b8280016001018555821561336a57600052602060002091601f016020900482015b8281111561336a5782548255916001019190600101906133da565b50805461340190613996565b6000825580601f10613411575050565b601f016020900490600052602060002090810190611d4291905b5b80821115613376576000815560010161342c565b60006020828403121561345257600080fd5b81356001600160e01b031981168114610ca957600080fd5b80356001600160a01b038116811461348157600080fd5b919050565b60006020828403121561349857600080fd5b610ca98261346a565b803560ff8116811461348157600080fd5b60008060008060008060008060006101208a8c0312156134d157600080fd5b6134da8a61346a565b98506134e860208b0161346a565b97506134f660408b0161346a565b965061350460608b0161346a565b955061351260808b0161346a565b945061352060a08b0161346a565b935061352e60c08b0161346a565b925061353c60e08b016134a1565b915061354b6101008b016134a1565b90509295985092959850929598565b60006020828403121561356c57600080fd5b5035919050565b8015158114611d4257600080fd5b60008060006060848603121561359657600080fd5b833592506020840135915060408401356135af81613573565b809150509250925092565b60005b838110156135d55781810151838201526020016135bd565b8381111561144a5750506000910152565b600081518084526135fe8160208601602086016135ba565b601f01601f19169290920160200192915050565b6000815160a0845261362760a08501826135e6565b90506020830151602085015260408301516040850152606083015160608501526080830151151560808501528091505092915050565b6000602080830181845280855180835260408601915060408160051b870101925083870160005b828110156136b257603f198886030184526136a0858351613612565b94509285019290850190600101613684565b5092979650505050505050565b600080604083850312156136d257600080fd5b823591506136e26020840161346a565b90509250929050565b634e487b7160e01b600052604160045260246000fd5b604051601f8201601f1916810167ffffffffffffffff8111828210171561372a5761372a6136eb565b604052919050565b600067ffffffffffffffff82111561374c5761374c6136eb565b50601f01601f191660200190565b600061376d61376884613732565b613701565b905082815283838301111561378157600080fd5b828260208301376000602084830101529392505050565b6000806000606084860312156137ad57600080fd5b833592506137bd602085016134a1565b9150604084013567ffffffffffffffff8111156137d957600080fd5b8401601f810186136137ea57600080fd5b6137f98682356020840161375a565b9150509250925092565b60006020828403121561381557600080fd5b8135610ca981613573565b6000806040838503121561383357600080fd5b50508035926020909101359150565b60008060006060848603121561385757600080fd5b6138608461346a565b925061386e6020850161346a565b9150604084013590509250925092565b6020808252825182820181905260009190848201906040850190845b818110156138b65783518352928401929184019160010161389a565b50909695505050505050565b600080600080608085870312156138d857600080fd5b843567ffffffffffffffff8111156138ef57600080fd5b8501601f8101871361390057600080fd5b61390f8782356020840161375a565b9450506020850135925060408501359150606085013561392e81613573565b939692955090935050565b60006020828403121561394b57600080fd5b610ca9826134a1565b602081526000610ca96020830184613612565b60208082526015908201527456616c756520697320616c7265616479207365742160581b604082015260600190565b600181811c908216806139aa57607f821691505b602082108114156139cb57634e487b7160e01b600052602260045260246000fd5b50919050565b60208082526019908201527f43686172616374657220646f6573206e6f742065786973742100000000000000604082015260600190565b60208082526018908201527f436861726163746572206973206e6f7420616374697665210000000000000000604082015260600190565b600060208284031215613a5157600080fd5b5051919050565b634e487b7160e01b600052601160045260246000fd5b600082821015613a8057613a80613a58565b500390565b6000816000190483118215151615613a9f57613a9f613a58565b500290565b634e487b7160e01b600052603260045260246000fd5b60008219821115613acd57613acd613a58565b500190565b6000600019821415613ae657613ae6613a58565b5060010190565b600060208284031215613aff57600080fd5b815167ffffffffffffffff811115613b1657600080fd5b8201601f81018413613b2757600080fd5b8051613b3561376882613732565b818152856020838501011115613b4a57600080fd5b610a2c8260208301602086016135ba565b600060208083526000845481600182811c915080831680613b7d57607f831692505b858310811415613b9b57634e487b7160e01b85526022600452602485fd5b878601838152602001818015613bb85760018114613bc957613bf4565b60ff19861682528782019650613bf4565b60008b81526020902060005b86811015613bee57815484820152908501908901613bd5565b83019750505b50949998505050505050505050565b602080825260159082015274506172616d20697320616c7265616479207365742160581b604082015260600190565b604081526000613c4560408301856135e6565b8281036020840152610a2c81856135e6565b600060208284031215613c6957600080fd5b8151610ca981613573565b634e487b7160e01b600052603160045260246000fd5b6001600160e01b0319831681528151600090613cad8160048501602087016135ba565b919091016004019392505050565b60008251613ccd8184602087016135ba565b9190910192915050565b600181815b80851115613d12578160001904821115613cf857613cf8613a58565b80851615613d0557918102915b93841c9390800290613cdc565b509250929050565b600082613d29575060016105bc565b81613d36575060006105bc565b8160018114613d4c5760028114613d5657613d72565b60019150506105bc565b60ff841115613d6757613d67613a58565b50506001821b6105bc565b5060208310610133831016604e8410600b8410161715613d95575081810a6105bc565b613d9f8383613cd7565b8060001904821115613db357613db3613a58565b029392505050565b6000610ca98383613d1a565b600082613de457634e487b7160e01b600052601260045260246000fd5b500490565b7f416363657373436f6e74726f6c3a206163636f756e7420000000000000000000815260008351613e218160178501602088016135ba565b7001034b99036b4b9b9b4b733903937b6329607d1b6017918401918201528351613e528160288401602088016135ba565b01602801949350505050565b602081526000610ca960208301846135e6565b600060ff821660ff841680821015613e8b57613e8b613a58565b90039392505050565b600081613ea357613ea3613a58565b50600019019056fe63f3fff32f360579b3b3b2428514459baa9e796b4c021cf05f92156c3cf72c9d71f3d55856e4058ed06ee057d79ada615f65cdf5f9ee88181b914225088f834fa26469706673582212202eb66331678809456be05a1577c99d63e9ff11f82e48cc746ec95bce205e4f2a64736f6c63430008090033",
  "devdoc": {
    "kind": "dev",
    "methods": {
      "getRoleAdmin(bytes32)": {
        "details": "Returns the admin role that controls `role`. See {grantRole} and {revokeRole}. To change a role's admin, use {_setRoleAdmin}."
      },
      "getRoleMember(bytes32,uint256)": {
        "details": "Returns one of the accounts that have `role`. `index` must be a value between 0 and {getRoleMemberCount}, non-inclusive. Role bearers are not sorted in any particular way, and their ordering may change at any point. WARNING: When using {getRoleMember} and {getRoleMemberCount}, make sure you perform all queries on the same block. See the following https://forum.openzeppelin.com/t/iterating-over-elements-on-enumerableset-in-openzeppelin-contracts/2296[forum post] for more information."
      },
      "getRoleMemberCount(bytes32)": {
        "details": "Returns the number of accounts that have `role`. Can be used together with {getRoleMember} to enumerate all bearers of a role."
      },
      "grantRole(bytes32,address)": {
        "details": "Grants `role` to `account`. If `account` had not been already granted `role`, emits a {RoleGranted} event. Requirements: - the caller must have ``role``'s admin role. May emit a {RoleGranted} event."
      },
      "hasRole(bytes32,address)": {
        "details": "Returns `true` if `account` has been granted `role`."
      },
      "renounceRole(bytes32,address)": {
        "details": "Revokes `role` from the calling account. Roles are often managed via {grantRole} and {revokeRole}: this function's purpose is to provide a mechanism for accounts to lose their privileges if they are compromised (such as when a trusted device is misplaced). If the calling account had been revoked `role`, emits a {RoleRevoked} event. Requirements: - the caller must be `account`. May emit a {RoleRevoked} event."
      },
      "revokeRole(bytes32,address)": {
        "details": "Revokes `role` from `account`. If `account` had been granted `role`, emits a {RoleRevoked} event. Requirements: - the caller must have ``role``'s admin role. May emit a {RoleRevoked} event."
      }
    },
    "version": 1
  },
  "userdoc": {
    "kind": "user",
    "methods": {},
    "version": 1
  },
  "storageLayout": {
    "storage": [
      {
        "astId": 921,
        "contract": "contracts/CharacterStoreContract.sol:CharacterStoreContract",
        "label": "_status",
        "offset": 0,
        "slot": "0",
        "type": "t_uint256"
      },
      {
        "astId": 396,
        "contract": "contracts/CharacterStoreContract.sol:CharacterStoreContract",
        "label": "_roles",
        "offset": 0,
        "slot": "1",
        "type": "t_mapping(t_bytes32,t_struct(RoleData)391_storage)"
      },
      {
        "astId": 706,
        "contract": "contracts/CharacterStoreContract.sol:CharacterStoreContract",
        "label": "_roleMembers",
        "offset": 0,
        "slot": "2",
        "type": "t_mapping(t_bytes32,t_struct(AddressSet)3113_storage)"
      },
      {
        "astId": 3431,
        "contract": "contracts/CharacterStoreContract.sol:CharacterStoreContract",
        "label": "_priceResolverInstance",
        "offset": 0,
        "slot": "3",
        "type": "t_contract(IPriceResolverContract)109"
      },
      {
        "astId": 3434,
        "contract": "contracts/CharacterStoreContract.sol:CharacterStoreContract",
        "label": "_eldInstance",
        "offset": 0,
        "slot": "4",
        "type": "t_contract(IEldfallTokenContract)371"
      },
      {
        "astId": 3437,
        "contract": "contracts/CharacterStoreContract.sol:CharacterStoreContract",
        "label": "_nftInstance",
        "offset": 0,
        "slot": "5",
        "type": "t_contract(ICharacterNftContract)322"
      },
      {
        "astId": 3439,
        "contract": "contracts/CharacterStoreContract.sol:CharacterStoreContract",
        "label": "_vaultAddress",
        "offset": 0,
        "slot": "6",
        "type": "t_address"
      },
      {
        "astId": 3442,
        "contract": "contracts/CharacterStoreContract.sol:CharacterStoreContract",
        "label": "_stableInstance",
        "offset": 0,
        "slot": "7",
        "type": "t_contract(IERC20)1042"
      },
      {
        "astId": 3444,
        "contract": "contracts/CharacterStoreContract.sol:CharacterStoreContract",
        "label": "_eldDiscount",
        "offset": 20,
        "slot": "7",
        "type": "t_uint8"
      },
      {
        "astId": 3446,
        "contract": "contracts/CharacterStoreContract.sol:CharacterStoreContract",
        "label": "_eldKickback",
        "offset": 21,
        "slot": "7",
        "type": "t_uint8"
      },
      {
        "astId": 3448,
        "contract": "contracts/CharacterStoreContract.sol:CharacterStoreContract",
        "label": "_storeActive",
        "offset": 22,
        "slot": "7",
        "type": "t_bool"
      },
      {
        "astId": 3450,
        "contract": "contracts/CharacterStoreContract.sol:CharacterStoreContract",
        "label": "_initialised",
        "offset": 23,
        "slot": "7",
        "type": "t_bool"
      },
      {
        "astId": 3453,
        "contract": "contracts/CharacterStoreContract.sol:CharacterStoreContract",
        "label": "_avaliableCharacters",
        "offset": 0,
        "slot": "8",
        "type": "t_array(t_bytes32)dyn_storage"
      },
      {
        "astId": 3458,
        "contract": "contracts/CharacterStoreContract.sol:CharacterStoreContract",
        "label": "_characterDataMap",
        "offset": 0,
        "slot": "9",
        "type": "t_mapping(t_bytes32,t_struct(CharacterData)5136_storage)"
      }
    ],
    "types": {
      "t_address": {
        "encoding": "inplace",
        "label": "address",
        "numberOfBytes": "20"
      },
      "t_array(t_bytes32)dyn_storage": {
        "base": "t_bytes32",
        "encoding": "dynamic_array",
        "label": "bytes32[]",
        "numberOfBytes": "32"
      },
      "t_bool": {
        "encoding": "inplace",
        "label": "bool",
        "numberOfBytes": "1"
      },
      "t_bytes32": {
        "encoding": "inplace",
        "label": "bytes32",
        "numberOfBytes": "32"
      },
      "t_contract(ICharacterNftContract)322": {
        "encoding": "inplace",
        "label": "contract ICharacterNftContract",
        "numberOfBytes": "20"
      },
      "t_contract(IERC20)1042": {
        "encoding": "inplace",
        "label": "contract IERC20",
        "numberOfBytes": "20"
      },
      "t_contract(IEldfallTokenContract)371": {
        "encoding": "inplace",
        "label": "contract IEldfallTokenContract",
        "numberOfBytes": "20"
      },
      "t_contract(IPriceResolverContract)109": {
        "encoding": "inplace",
        "label": "contract IPriceResolverContract",
        "numberOfBytes": "20"
      },
      "t_mapping(t_address,t_bool)": {
        "encoding": "mapping",
        "key": "t_address",
        "label": "mapping(address => bool)",
        "numberOfBytes": "32",
        "value": "t_bool"
      },
      "t_mapping(t_bytes32,t_struct(AddressSet)3113_storage)": {
        "encoding": "mapping",
        "key": "t_bytes32",
        "label": "mapping(bytes32 => struct EnumerableSet.AddressSet)",
        "numberOfBytes": "32",
        "value": "t_struct(AddressSet)3113_storage"
      },
      "t_mapping(t_bytes32,t_struct(CharacterData)5136_storage)": {
        "encoding": "mapping",
        "key": "t_bytes32",
        "label": "mapping(bytes32 => struct ICharacterStoreContract.CharacterData)",
        "numberOfBytes": "32",
        "value": "t_struct(CharacterData)5136_storage"
      },
      "t_mapping(t_bytes32,t_struct(RoleData)391_storage)": {
        "encoding": "mapping",
        "key": "t_bytes32",
        "label": "mapping(bytes32 => struct AccessControl.RoleData)",
        "numberOfBytes": "32",
        "value": "t_struct(RoleData)391_storage"
      },
      "t_mapping(t_bytes32,t_uint256)": {
        "encoding": "mapping",
        "key": "t_bytes32",
        "label": "mapping(bytes32 => uint256)",
        "numberOfBytes": "32",
        "value": "t_uint256"
      },
      "t_string_storage": {
        "encoding": "bytes",
        "label": "string",
        "numberOfBytes": "32"
      },
      "t_struct(AddressSet)3113_storage": {
        "encoding": "inplace",
        "label": "struct EnumerableSet.AddressSet",
        "members": [
          {
            "astId": 3112,
            "contract": "contracts/CharacterStoreContract.sol:CharacterStoreContract",
            "label": "_inner",
            "offset": 0,
            "slot": "0",
            "type": "t_struct(Set)2798_storage"
          }
        ],
        "numberOfBytes": "64"
      },
      "t_struct(CharacterData)5136_storage": {
        "encoding": "inplace",
        "label": "struct ICharacterStoreContract.CharacterData",
        "members": [
          {
            "astId": 5125,
            "contract": "contracts/CharacterStoreContract.sol:CharacterStoreContract",
            "label": "name",
            "offset": 0,
            "slot": "0",
            "type": "t_string_storage"
          },
          {
            "astId": 5127,
            "contract": "contracts/CharacterStoreContract.sol:CharacterStoreContract",
            "label": "storeId",
            "offset": 0,
            "slot": "1",
            "type": "t_uint256"
          },
          {
            "astId": 5129,
            "contract": "contracts/CharacterStoreContract.sol:CharacterStoreContract",
            "label": "characterHash",
            "offset": 0,
            "slot": "2",
            "type": "t_bytes32"
          },
          {
            "astId": 5131,
            "contract": "contracts/CharacterStoreContract.sol:CharacterStoreContract",
            "label": "price",
            "offset": 0,
            "slot": "3",
            "type": "t_uint256"
          },
          {
            "astId": 5133,
            "contract": "contracts/CharacterStoreContract.sol:CharacterStoreContract",
            "label": "active",
            "offset": 0,
            "slot": "4",
            "type": "t_bool"
          },
          {
            "astId": 5135,
            "contract": "contracts/CharacterStoreContract.sol:CharacterStoreContract",
            "label": "avaliable",
            "offset": 1,
            "slot": "4",
            "type": "t_bool"
          }
        ],
        "numberOfBytes": "160"
      },
      "t_struct(RoleData)391_storage": {
        "encoding": "inplace",
        "label": "struct AccessControl.RoleData",
        "members": [
          {
            "astId": 388,
            "contract": "contracts/CharacterStoreContract.sol:CharacterStoreContract",
            "label": "members",
            "offset": 0,
            "slot": "0",
            "type": "t_mapping(t_address,t_bool)"
          },
          {
            "astId": 390,
            "contract": "contracts/CharacterStoreContract.sol:CharacterStoreContract",
            "label": "adminRole",
            "offset": 0,
            "slot": "1",
            "type": "t_bytes32"
          }
        ],
        "numberOfBytes": "64"
      },
      "t_struct(Set)2798_storage": {
        "encoding": "inplace",
        "label": "struct EnumerableSet.Set",
        "members": [
          {
            "astId": 2793,
            "contract": "contracts/CharacterStoreContract.sol:CharacterStoreContract",
            "label": "_values",
            "offset": 0,
            "slot": "0",
            "type": "t_array(t_bytes32)dyn_storage"
          },
          {
            "astId": 2797,
            "contract": "contracts/CharacterStoreContract.sol:CharacterStoreContract",
            "label": "_indexes",
            "offset": 0,
            "slot": "1",
            "type": "t_mapping(t_bytes32,t_uint256)"
          }
        ],
        "numberOfBytes": "64"
      },
      "t_uint256": {
        "encoding": "inplace",
        "label": "uint256",
        "numberOfBytes": "32"
      },
      "t_uint8": {
        "encoding": "inplace",
        "label": "uint8",
        "numberOfBytes": "1"
      }
    }
  }
}