{
  "address": "0xDc64a140Aa3E981100a9becA4E685f962f0cF6C9",
  "abi": [
    {
      "inputs": [],
      "stateMutability": "nonpayable",
      "type": "constructor"
    },
    {
      "anonymous": false,
      "inputs": [
        {
          "indexed": true,
          "internalType": "bytes32",
          "name": "characterHash",
          "type": "bytes32"
        }
      ],
      "name": "CharacterAdded",
      "type": "event"
    },
    {
      "anonymous": false,
      "inputs": [
        {
          "indexed": true,
          "internalType": "bytes32",
          "name": "characterHash",
          "type": "bytes32"
        },
        {
          "indexed": true,
          "internalType": "address",
          "name": "buyerAddress",
          "type": "address"
        },
        {
          "indexed": false,
          "internalType": "address",
          "name": "currency",
          "type": "address"
        },
        {
          "indexed": false,
          "internalType": "uint256",
          "name": "price",
          "type": "uint256"
        }
      ],
      "name": "CharacterBought",
      "type": "event"
    },
    {
      "anonymous": false,
      "inputs": [
        {
          "indexed": true,
          "internalType": "bytes32",
          "name": "characterHash",
          "type": "bytes32"
        },
        {
          "indexed": true,
          "internalType": "uint256",
          "name": "paramId",
          "type": "uint256"
        },
        {
          "indexed": false,
          "internalType": "bytes",
          "name": "oldValue",
          "type": "bytes"
        },
        {
          "indexed": false,
          "internalType": "bytes",
          "name": "newValue",
          "type": "bytes"
        }
      ],
      "name": "CharacterDataUpdated",
      "type": "event"
    },
    {
      "anonymous": false,
      "inputs": [
        {
          "indexed": true,
          "internalType": "bytes32",
          "name": "characterHash",
          "type": "bytes32"
        }
      ],
      "name": "CharacterRemoved",
      "type": "event"
    },
    {
      "anonymous": false,
      "inputs": [],
      "name": "ContractKilled",
      "type": "event"
    },
    {
      "anonymous": false,
      "inputs": [
        {
          "indexed": false,
          "internalType": "uint256",
          "name": "oldValue",
          "type": "uint256"
        },
        {
          "indexed": false,
          "internalType": "uint256",
          "name": "newValue",
          "type": "uint256"
        }
      ],
      "name": "EldDiscountChanged",
      "type": "event"
    },
    {
      "anonymous": false,
      "inputs": [
        {
          "indexed": false,
          "internalType": "address",
          "name": "oldValue",
          "type": "address"
        },
        {
          "indexed": false,
          "internalType": "address",
          "name": "newValue",
          "type": "address"
        }
      ],
      "name": "EldInstanceChanged",
      "type": "event"
    },
    {
      "anonymous": false,
      "inputs": [
        {
          "indexed": false,
          "internalType": "uint256",
          "name": "oldValue",
          "type": "uint256"
        },
        {
          "indexed": false,
          "internalType": "uint256",
          "name": "newValue",
          "type": "uint256"
        }
      ],
      "name": "EldKickbackChanged",
      "type": "event"
    },
    {
      "anonymous": false,
      "inputs": [
        {
          "indexed": false,
          "internalType": "address",
          "name": "oldValue",
          "type": "address"
        },
        {
          "indexed": false,
          "internalType": "address",
          "name": "newValue",
          "type": "address"
        }
      ],
      "name": "NftInstanceChanged",
      "type": "event"
    },
    {
      "anonymous": false,
      "inputs": [
        {
          "indexed": false,
          "internalType": "address",
          "name": "oldValue",
          "type": "address"
        },
        {
          "indexed": false,
          "internalType": "address",
          "name": "newValue",
          "type": "address"
        }
      ],
      "name": "PriceResolverInstanceChanged",
      "type": "event"
    },
    {
      "anonymous": false,
      "inputs": [
        {
          "indexed": true,
          "internalType": "bytes32",
          "name": "role",
          "type": "bytes32"
        },
        {
          "indexed": true,
          "internalType": "bytes32",
          "name": "previousAdminRole",
          "type": "bytes32"
        },
        {
          "indexed": true,
          "internalType": "bytes32",
          "name": "newAdminRole",
          "type": "bytes32"
        }
      ],
      "name": "RoleAdminChanged",
      "type": "event"
    },
    {
      "anonymous": false,
      "inputs": [
        {
          "indexed": true,
          "internalType": "bytes32",
          "name": "role",
          "type": "bytes32"
        },
        {
          "indexed": true,
          "internalType": "address",
          "name": "account",
          "type": "address"
        },
        {
          "indexed": true,
          "internalType": "address",
          "name": "sender",
          "type": "address"
        }
      ],
      "name": "RoleGranted",
      "type": "event"
    },
    {
      "anonymous": false,
      "inputs": [
        {
          "indexed": true,
          "internalType": "bytes32",
          "name": "role",
          "type": "bytes32"
        },
        {
          "indexed": true,
          "internalType": "address",
          "name": "account",
          "type": "address"
        },
        {
          "indexed": true,
          "internalType": "address",
          "name": "sender",
          "type": "address"
        }
      ],
      "name": "RoleRevoked",
      "type": "event"
    },
    {
      "anonymous": false,
      "inputs": [
        {
          "indexed": false,
          "internalType": "address",
          "name": "oldValue",
          "type": "address"
        },
        {
          "indexed": false,
          "internalType": "address",
          "name": "newValue",
          "type": "address"
        }
      ],
      "name": "StableInstanceChanged",
      "type": "event"
    },
    {
      "anonymous": false,
      "inputs": [
        {
          "indexed": false,
          "internalType": "bool",
          "name": "oldValue",
          "type": "bool"
        },
        {
          "indexed": false,
          "internalType": "bool",
          "name": "newValue",
          "type": "bool"
        }
      ],
      "name": "StoreActiveChanged",
      "type": "event"
    },
    {
      "anonymous": false,
      "inputs": [
        {
          "indexed": true,
          "internalType": "address",
          "name": "tokenAddress",
          "type": "address"
        },
        {
          "indexed": true,
          "internalType": "address",
          "name": "userAddress",
          "type": "address"
        },
        {
          "indexed": false,
          "internalType": "uint256",
          "name": "amount",
          "type": "uint256"
        }
      ],
      "name": "TokensSalvaged",
      "type": "event"
    },
    {
      "anonymous": false,
      "inputs": [
        {
          "indexed": false,
          "internalType": "address",
          "name": "oldValue",
          "type": "address"
        },
        {
          "indexed": false,
          "internalType": "address",
          "name": "newValue",
          "type": "address"
        }
      ],
      "name": "VaultAddressChanged",
      "type": "event"
    },
    {
      "inputs": [],
      "name": "DEFAULT_ADMIN_ROLE",
      "outputs": [
        {
          "internalType": "bytes32",
          "name": "",
          "type": "bytes32"
        }
      ],
      "stateMutability": "view",
      "type": "function"
    },
    {
      "inputs": [],
      "name": "MODERATOR_ROLE",
      "outputs": [
        {
          "internalType": "bytes32",
          "name": "",
          "type": "bytes32"
        }
      ],
      "stateMutability": "view",
      "type": "function"
    },
    {
      "inputs": [
        {
          "internalType": "string",
          "name": "name_",
          "type": "string"
        },
        {
          "internalType": "bytes32",
          "name": "characterHash_",
          "type": "bytes32"
        },
        {
          "internalType": "uint256",
          "name": "price_",
          "type": "uint256"
        },
        {
          "internalType": "bool",
          "name": "active_",
          "type": "bool"
        }
      ],
      "name": "addCharacter",
      "outputs": [],
      "stateMutability": "nonpayable",
      "type": "function"
    },
    {
      "inputs": [
        {
          "internalType": "bytes32",
          "name": "characterHash_",
          "type": "bytes32"
        }
      ],
      "name": "buyWithEld",
      "outputs": [],
      "stateMutability": "nonpayable",
      "type": "function"
    },
    {
      "inputs": [
        {
          "internalType": "bytes32",
          "name": "characterHash_",
          "type": "bytes32"
        }
      ],
      "name": "buyWithStable",
      "outputs": [],
      "stateMutability": "nonpayable",
      "type": "function"
    },
    {
      "inputs": [
        {
          "internalType": "bytes32",
          "name": "characterHash_",
          "type": "bytes32"
        },
        {
          "internalType": "uint8",
          "name": "paramId_",
          "type": "uint8"
        },
        {
          "internalType": "bytes",
          "name": "paramData_",
          "type": "bytes"
        }
      ],
      "name": "editCharacter",
      "outputs": [],
      "stateMutability": "nonpayable",
      "type": "function"
    },
    {
      "inputs": [],
      "name": "getAvaliableCharacters",
      "outputs": [
        {
          "internalType": "bytes32[]",
          "name": "",
          "type": "bytes32[]"
        }
      ],
      "stateMutability": "view",
      "type": "function"
    },
    {
      "inputs": [],
      "name": "getAvaliableCharactersData",
      "outputs": [
        {
          "components": [
            {
              "internalType": "string",
              "name": "name",
              "type": "string"
            },
            {
              "internalType": "uint256",
              "name": "storeId",
              "type": "uint256"
            },
            {
              "internalType": "bytes32",
              "name": "characterHash",
              "type": "bytes32"
            },
            {
              "internalType": "uint256",
              "name": "price",
              "type": "uint256"
            },
            {
              "internalType": "bool",
              "name": "active",
              "type": "bool"
            },
            {
              "internalType": "bool",
              "name": "avaliable",
              "type": "bool"
            }
          ],
          "internalType": "struct CharacterData[]",
          "name": "",
          "type": "tuple[]"
        }
      ],
      "stateMutability": "view",
      "type": "function"
    },
    {
      "inputs": [
        {
          "internalType": "bytes32",
          "name": "characterHash_",
          "type": "bytes32"
        }
      ],
      "name": "getCharacter",
      "outputs": [
        {
          "components": [
            {
              "internalType": "string",
              "name": "name",
              "type": "string"
            },
            {
              "internalType": "uint256",
              "name": "storeId",
              "type": "uint256"
            },
            {
              "internalType": "bytes32",
              "name": "characterHash",
              "type": "bytes32"
            },
            {
              "internalType": "uint256",
              "name": "price",
              "type": "uint256"
            },
            {
              "internalType": "bool",
              "name": "active",
              "type": "bool"
            },
            {
              "internalType": "bool",
              "name": "avaliable",
              "type": "bool"
            }
          ],
          "internalType": "struct CharacterData",
          "name": "",
          "type": "tuple"
        }
      ],
      "stateMutability": "view",
      "type": "function"
    },
    {
      "inputs": [],
      "name": "getEldDiscount",
      "outputs": [
        {
          "internalType": "uint8",
          "name": "",
          "type": "uint8"
        }
      ],
      "stateMutability": "view",
      "type": "function"
    },
    {
      "inputs": [],
      "name": "getEldKickback",
      "outputs": [
        {
          "internalType": "uint8",
          "name": "",
          "type": "uint8"
        }
      ],
      "stateMutability": "view",
      "type": "function"
    },
    {
      "inputs": [],
      "name": "getEldTokenAddress",
      "outputs": [
        {
          "internalType": "address",
          "name": "",
          "type": "address"
        }
      ],
      "stateMutability": "view",
      "type": "function"
    },
    {
      "inputs": [],
      "name": "getNftAddress",
      "outputs": [
        {
          "internalType": "address",
          "name": "",
          "type": "address"
        }
      ],
      "stateMutability": "view",
      "type": "function"
    },
    {
      "inputs": [],
      "name": "getPriceResolverAddress",
      "outputs": [
        {
          "internalType": "address",
          "name": "",
          "type": "address"
        }
      ],
      "stateMutability": "view",
      "type": "function"
    },
    {
      "inputs": [
        {
          "internalType": "bytes32",
          "name": "role",
          "type": "bytes32"
        }
      ],
      "name": "getRoleAdmin",
      "outputs": [
        {
          "internalType": "bytes32",
          "name": "",
          "type": "bytes32"
        }
      ],
      "stateMutability": "view",
      "type": "function"
    },
    {
      "inputs": [
        {
          "internalType": "bytes32",
          "name": "role",
          "type": "bytes32"
        },
        {
          "internalType": "uint256",
          "name": "index",
          "type": "uint256"
        }
      ],
      "name": "getRoleMember",
      "outputs": [
        {
          "internalType": "address",
          "name": "",
          "type": "address"
        }
      ],
      "stateMutability": "view",
      "type": "function"
    },
    {
      "inputs": [
        {
          "internalType": "bytes32",
          "name": "role",
          "type": "bytes32"
        }
      ],
      "name": "getRoleMemberCount",
      "outputs": [
        {
          "internalType": "uint256",
          "name": "",
          "type": "uint256"
        }
      ],
      "stateMutability": "view",
      "type": "function"
    },
    {
      "inputs": [],
      "name": "getStableAddress",
      "outputs": [
        {
          "internalType": "address",
          "name": "",
          "type": "address"
        }
      ],
      "stateMutability": "view",
      "type": "function"
    },
    {
      "inputs": [],
      "name": "getStoreActive",
      "outputs": [
        {
          "internalType": "bool",
          "name": "",
          "type": "bool"
        }
      ],
      "stateMutability": "view",
      "type": "function"
    },
    {
      "inputs": [],
      "name": "getVaultAddress",
      "outputs": [
        {
          "internalType": "address",
          "name": "",
          "type": "address"
        }
      ],
      "stateMutability": "view",
      "type": "function"
    },
    {
      "inputs": [
        {
          "internalType": "bytes32",
          "name": "role",
          "type": "bytes32"
        },
        {
          "internalType": "address",
          "name": "account",
          "type": "address"
        }
      ],
      "name": "grantRole",
      "outputs": [],
      "stateMutability": "nonpayable",
      "type": "function"
    },
    {
      "inputs": [
        {
          "internalType": "bytes32",
          "name": "role",
          "type": "bytes32"
        },
        {
          "internalType": "address",
          "name": "account",
          "type": "address"
        }
      ],
      "name": "hasRole",
      "outputs": [
        {
          "internalType": "bool",
          "name": "",
          "type": "bool"
        }
      ],
      "stateMutability": "view",
      "type": "function"
    },
    {
      "inputs": [
        {
          "internalType": "address",
          "name": "defaultAdminAddress_",
          "type": "address"
        },
        {
          "internalType": "address",
          "name": "moderatorAddress_",
          "type": "address"
        },
        {
          "internalType": "address",
          "name": "vaultAddress_",
          "type": "address"
        },
        {
          "internalType": "address",
          "name": "priceResolverAddress_",
          "type": "address"
        },
        {
          "internalType": "address",
          "name": "eldAddress_",
          "type": "address"
        },
        {
          "internalType": "address",
          "name": "nftAddress_",
          "type": "address"
        },
        {
          "internalType": "address",
          "name": "stableAddress_",
          "type": "address"
        },
        {
          "internalType": "uint8",
          "name": "eldDiscount_",
          "type": "uint8"
        },
        {
          "internalType": "uint8",
          "name": "eldKickback_",
          "type": "uint8"
        }
      ],
      "name": "init",
      "outputs": [],
      "stateMutability": "nonpayable",
      "type": "function"
    },
    {
      "inputs": [],
      "name": "isInitialised",
      "outputs": [
        {
          "internalType": "bool",
          "name": "",
          "type": "bool"
        }
      ],
      "stateMutability": "view",
      "type": "function"
    },
    {
      "inputs": [],
      "name": "killContract",
      "outputs": [],
      "stateMutability": "nonpayable",
      "type": "function"
    },
    {
      "inputs": [
        {
          "internalType": "bytes32",
          "name": "characterHash_",
          "type": "bytes32"
        }
      ],
      "name": "removeCharacter",
      "outputs": [],
      "stateMutability": "nonpayable",
      "type": "function"
    },
    {
      "inputs": [
        {
          "internalType": "bytes32",
          "name": "role",
          "type": "bytes32"
        },
        {
          "internalType": "address",
          "name": "account",
          "type": "address"
        }
      ],
      "name": "renounceRole",
      "outputs": [],
      "stateMutability": "nonpayable",
      "type": "function"
    },
    {
      "inputs": [
        {
          "internalType": "bytes32",
          "name": "role",
          "type": "bytes32"
        },
        {
          "internalType": "address",
          "name": "account",
          "type": "address"
        }
      ],
      "name": "revokeRole",
      "outputs": [],
      "stateMutability": "nonpayable",
      "type": "function"
    },
    {
      "inputs": [
        {
          "internalType": "address",
          "name": "tokenAddress_",
          "type": "address"
        },
        {
          "internalType": "address",
          "name": "to_",
          "type": "address"
        },
        {
          "internalType": "uint256",
          "name": "amount_",
          "type": "uint256"
        }
      ],
      "name": "salvageTokensFromContract",
      "outputs": [],
      "stateMutability": "nonpayable",
      "type": "function"
    },
    {
      "inputs": [
        {
          "internalType": "uint8",
          "name": "eldDiscount_",
          "type": "uint8"
        }
      ],
      "name": "setEldDiscount",
      "outputs": [],
      "stateMutability": "nonpayable",
      "type": "function"
    },
    {
      "inputs": [
        {
          "internalType": "address",
          "name": "eldAddress_",
          "type": "address"
        }
      ],
      "name": "setEldInstance",
      "outputs": [],
      "stateMutability": "nonpayable",
      "type": "function"
    },
    {
      "inputs": [
        {
          "internalType": "uint8",
          "name": "eldKickback_",
          "type": "uint8"
        }
      ],
      "name": "setEldKickback",
      "outputs": [],
      "stateMutability": "nonpayable",
      "type": "function"
    },
    {
      "inputs": [
        {
          "internalType": "address",
          "name": "nftAddress_",
          "type": "address"
        }
      ],
      "name": "setNftInstance",
      "outputs": [],
      "stateMutability": "nonpayable",
      "type": "function"
    },
    {
      "inputs": [
        {
          "internalType": "address",
          "name": "priceResolverAddress_",
          "type": "address"
        }
      ],
      "name": "setPriceResolverInstance",
      "outputs": [],
      "stateMutability": "nonpayable",
      "type": "function"
    },
    {
      "inputs": [
        {
          "internalType": "address",
          "name": "stableAddress_",
          "type": "address"
        }
      ],
      "name": "setStableInstance",
      "outputs": [],
      "stateMutability": "nonpayable",
      "type": "function"
    },
    {
      "inputs": [
        {
          "internalType": "bool",
          "name": "active_",
          "type": "bool"
        }
      ],
      "name": "setStoreActive",
      "outputs": [],
      "stateMutability": "nonpayable",
      "type": "function"
    },
    {
      "inputs": [
        {
          "internalType": "address",
          "name": "vaultAddress_",
          "type": "address"
        }
      ],
      "name": "setVaultAddress",
      "outputs": [],
      "stateMutability": "nonpayable",
      "type": "function"
    },
    {
      "inputs": [
        {
          "internalType": "bytes4",
          "name": "interfaceId",
          "type": "bytes4"
        }
      ],
      "name": "supportsInterface",
      "outputs": [
        {
          "internalType": "bool",
          "name": "",
          "type": "bool"
        }
      ],
      "stateMutability": "view",
      "type": "function"
    }
  ],
  "transactionHash": "0x225fe8584f2c1325e62404bd6bc1cac22e38e2e0c683a32a95a25d47ff41de09",
  "args": [],
  "numDeployments": 1,
  "solcInputHash": "39c5df7462bfdeb09074d2cee8774ae1",
  "bytecode": "0x60806040523480156200001157600080fd5b50600160009081556200002590336200002b565b62000169565b6200004282826200006e60201b620028101760201c565b6000828152600260209081526040909120620000699183906200287b620000f7821b17901c565b505050565b60008281526001602090815260408083206001600160a01b038516845290915290205460ff16620000f35760008281526001602081815260408084206001600160a01b0386168086529252808420805460ff19169093179092559051339285917f2f8788117e7eff1d82e926ec794901d17c78024a50270940304540a733656f0d9190a45b5050565b60006200010e836001600160a01b03841662000117565b90505b92915050565b6000818152600183016020526040812054620001605750815460018181018455600084815260208082209093018490558454848252828601909352604090209190915562000111565b50600062000111565b613c1380620001796000396000f3fe608060405234801561001057600080fd5b50600436106102325760003560e01c80639010d07c11610130578063be9a71bd116100b8578063d547741f1161007c578063d547741f146104f3578063e3a7280614610506578063e674f1e014610519578063f58151441461052c578063ffdb0c8f1461053d57600080fd5b8063be9a71bd14610489578063c8c54dae1461049a578063ca15c873146104ad578063cdf3a30c146104c0578063d15f1227146104d357600080fd5b8063a0929cda116100ff578063a0929cda14610435578063a217fddf14610448578063a2da9fc214610450578063ac32cb6214610465578063b29ad2981461047857600080fd5b80639010d07c146103ea57806391d14854146103fd5780639dcdfe9f146104105780639ed3c90c1461042357600080fd5b806336568abe116101be57806365cacaa41161018257806365cacaa41461038b578063797669c91461039c57806385535cc5146103b1578063872bd62e146103c457806387a0ee6c146103d757600080fd5b806336568abe1461031b578063418b66d01461032e5780635a2dca9b146103405780635b25d4b91461036557806361aa62e01461037857600080fd5b80631c02708d116102055780631c02708d14610299578063248a9ca3146102a15780632f1b343f146102d35780632f2ff15d146102f3578063345bed041461030657600080fd5b806301ffc9a714610237578063031eaaf11461025f57806305beab171461027457806314e5d7d314610286575b600080fd5b61024a610245366004613171565b610550565b60405190151581526020015b60405180910390f35b61027261026d3660046131b7565b61057b565b005b600754600160b01b900460ff1661024a565b6102726102943660046131e3565b610634565b610272610768565b6102c56102af36600461328b565b6000908152600160208190526040909120015490565b604051908152602001610256565b600754600160a01b900460ff165b60405160ff9091168152602001610256565b6102726103013660046132a4565b61079f565b61030e6107ca565b604051610256919061337f565b6102726103293660046132a4565b61099f565b600754600160a81b900460ff166102e1565b6004546001600160a01b03165b6040516001600160a01b039091168152602001610256565b61027261037336600461348e565b610a1d565b61027261038636600461328b565b611114565b6006546001600160a01b031661034d565b6102c5600080516020613bbe83398151915281565b6102726103bf3660046131b7565b611325565b6102726103d23660046131b7565b6113d5565b6102726103e5366004613507565b611485565b61034d6103f8366004613524565b611595565b61024a61040b3660046132a4565b6115b4565b61027261041e36600461328b565b6115df565b600754600160b81b900460ff1661024a565b610272610443366004613546565b611bc4565b6102c5600081565b610458611d60565b6040516102569190613582565b6102726104733660046131b7565b611db8565b6003546001600160a01b031661034d565b6005546001600160a01b031661034d565b6102726104a83660046135c6565b611e68565b6102c56104bb36600461328b565b611ff9565b6102726104ce36600461363d565b612010565b6104e66104e136600461328b565b612113565b6040516102569190613658565b6102726105013660046132a4565b612233565b61027261051436600461328b565b612259565b6102726105273660046131b7565b61265d565b6007546001600160a01b031661034d565b61027261054b36600461363d565b61270d565b60006001600160e01b03198216635a05180f60e01b1480610575575061057582612890565b92915050565b600080516020613bbe833981519152610593816128c5565b6005546001600160a01b03838116911614156105ca5760405162461bcd60e51b81526004016105c19061366b565b60405180910390fd5b600554604080516001600160a01b03928316815291841660208301527f1ef4f9da91d4f3b0b261f426b01f6437b2465f773a568cc3b1d5f5b5581134bc910160405180910390a150600580546001600160a01b0319166001600160a01b0392909216919091179055565b600061063f816128c5565b600754600160b81b900460ff16156106995760405162461bcd60e51b815260206004820181905260248201527f436f6e747261637420697320616c726561647920696e697469616c697365642160448201526064016105c1565b6106a460008b6128d2565b6106bc600080516020613bbe8339815191528a6128d2565b600680546001600160a01b03199081166001600160a01b038b8116919091179092556003805482168a84161790556004805482168984161790556005805490911687831617905560078054600160b81b9287166001600160a81b031990911617600160a01b60ff878116919091029190911762ff00ff60a81b1916600160a81b9186169190910260ff60b81b19161791909117905561075c6000336128f4565b50505050505050505050565b6000610773816128c5565b6040517f57ba5b229dec138f5bae2e9a20b8035310ff14ea10b05bdbfa410625f867c79190600090a133ff5b600082815260016020819052604090912001546107bb816128c5565b6107c583836128d2565b505050565b60085460609060009067ffffffffffffffff8111156107eb576107eb6133e1565b60405190808252806020026020018201604052801561084c57816020015b6040805160c0810182526060808252600060208084018290529383018190529082018190526080820181905260a082015282526000199092019101816108095790505b50905060005b6008548110156109995760096000600883815481106108735761087361369a565b906000526020600020015481526020019081526020016000206040518060c00160405290816000820180546108a7906136b0565b80601f01602080910402602001604051908101604052809291908181526020018280546108d3906136b0565b80156109205780601f106108f557610100808354040283529160200191610920565b820191906000526020600020905b81548152906001019060200180831161090357829003601f168201915b505050918352505060018201546020820152600282015460408201526003820154606082015260049091015460ff8082161515608084015261010090910416151560a090910152825183908390811061097b5761097b61369a565b60200260200101819052508080610991906136fb565b915050610852565b50919050565b6001600160a01b0381163314610a0f5760405162461bcd60e51b815260206004820152602f60248201527f416363657373436f6e74726f6c3a2063616e206f6e6c792072656e6f756e636560448201526e103937b632b9903337b91039b2b63360891b60648201526084016105c1565b610a1982826128f4565b5050565b600080516020613bbe833981519152610a35816128c5565b600084815260096020526040902060040154610100900460ff16610a6b5760405162461bcd60e51b81526004016105c190613716565b60ff8316610b3e57600082806020019051810190610a89919061374d565b600086815260096020908152604080832090519394509192610aac9291016137c4565b6040516020818303038152906040529050838051906020012081805190602001201415610aeb5760405162461bcd60e51b81526004016105c19061386c565b8460ff1686600080516020613b9e8339815191528387604051610b0f92919061389b565b60405180910390a360008681526009602090815260409091208351610b3692850190613027565b50505061110e565b60018360ff161415610d2957600082806020019051810190610b6091906138c0565b600086815260096020526040902060010154600854919250908210610bc75760405162461bcd60e51b815260206004820152601760248201527f4e6577206964206973206f7574206f662072616e67652100000000000000000060448201526064016105c1565b80821415610be75760405162461bcd60e51b81526004016105c19061386c565b600060088381548110610bfc57610bfc61369a565b90600052602060002001549050600060088381548110610c1e57610c1e61369a565b906000526020600020015490508660ff1682600080516020613b9e83398151915285604051602001610c5291815260200190565b60408051601f1981840301815290829052610c6e918b9061389b565b60405180910390a38660ff1681600080516020613b9e8339815191528886604051602001610c9e91815260200190565b60408051601f1981840301815290829052610cb9929161389b565b60405180910390a38160088481548110610cd557610cd561369a565b90600052602060002001819055508060088581548110610cf757610cf761369a565b60009182526020808320909101929092559283526009905260408083206001908101949094559082529020015561110e565b60028360ff161415610f1857600082806020019051810190610d4b91906138c0565b600081815260096020526040902060040154909150610100900460ff1615610db55760405162461bcd60e51b815260206004820152601f60248201527f43686172616374657220697320616c7265616479206176616c6961626c65210060448201526064016105c1565b8360ff1685600080516020613b9e83398151915287604051602001610ddc91815260200190565b60408051601f1981840301815290829052610df891889061389b565b60405180910390a3600085815260096020526040902060010154600880548392908110610e2757610e2761369a565b6000918252602080832090910192909255868152600990915260408082208383529120815481908390610e59906136b0565b610e649291906130ab565b506001828101549082015560028083015481830155600380840154908301556004928301805493909201805460ff948516151560ff19821681178355935461010090819004909516151590940261ff001990931661ffff19909416939093179190911790915560008281526009602052604080822090920183905586815290812090610ef08282613126565b50600060018201819055600282018190556003820155600401805461ffff191690555061110e565b60038360ff161415610fe657600082806020019051810190610f3a91906138c0565b600086815260096020526040902060030154909150811415610f6e5760405162461bcd60e51b81526004016105c19061386c565b8360ff1685600080516020613b9e83398151915285600960008a815260200190815260200160002060030154604051602001610fac91815260200190565b60408051601f1981840301815290829052610fc7929161389b565b60405180910390a360008581526009602052604090206003015561110e565b60048360ff1614156110cf5760008280602001905181019061100891906138d9565b60008681526009602052604090206004015490915060ff16151581151514156110435760405162461bcd60e51b81526004016105c19061386c565b60008581526009602090815260409182902060040154915160ff808816938993600080516020613b9e83398151915293899361108793169101901515815260200190565b60408051601f19818403018152908290526110a2929161389b565b60405180910390a36000858152600960205260409020600401805460ff191691151591909117905561110e565b60405162461bcd60e51b815260206004820152601460248201527314185c985b48191bd95cc81b9bdd08195e1a5cdd60621b60448201526064016105c1565b50505050565b600080516020613bbe83398151915261112c816128c5565b600082815260096020526040902060040154610100900460ff166111625760405162461bcd60e51b81526004016105c190613716565b600854600090611174906001906138f6565b6000848152600960205260409020600101549091508114611290576000600882815481106111a4576111a461369a565b9060005260206000200154905060006009600086815260200190815260200160002060010154905084600884815481106111e0576111e061369a565b906000526020600020018190555081600882815481106112025761120261369a565b6000918252602080832091909101929092558681526009825260408082206001908101879055858352918190208201849055805192830184905290918791600080516020613b9e833981519152910160408051601f1981840301815282825260208301899052910160408051601f1981840301815290829052611285929161389b565b60405180910390a350505b60088054806112a1576112a161390d565b6000828152602080822083016000199081018390559092019092558482526009905260408120906112d28282613126565b5060006001820181905560028201819055600382018190556004909101805461ffff1916905560405184917f9d2baf855a82b9ade3c757b5b23166f2704a0a890332c3996f86482ced2edc3691a2505050565b600080516020613bbe83398151915261133d816128c5565b6006546001600160a01b038381169116141561136b5760405162461bcd60e51b81526004016105c19061366b565b600654604080516001600160a01b03928316815291841660208301527fa4f45a63389e7031375b7e4422cccea56ab403ecedbd3ce1f0587acaa1999ae3910160405180910390a150600680546001600160a01b0319166001600160a01b0392909216919091179055565b600080516020613bbe8339815191526113ed816128c5565b6004546001600160a01b038381169116141561141b5760405162461bcd60e51b81526004016105c19061366b565b600454604080516001600160a01b03928316815291841660208301527f4be3cf9acbd272e5cb42afb5d0efa1cd26b618eccc2ae3750657d4d558d38b2b910160405180910390a150600480546001600160a01b0319166001600160a01b0392909216919091179055565b600080516020613bbe83398151915261149d816128c5565b60075460ff600160b01b90910416151582151514156114ce5760405162461bcd60e51b81526004016105c19061366b565b811561152d57600754600160b81b900460ff1661152d5760405162461bcd60e51b815260206004820152601c60248201527f436f6e7472616374206973206e6f7420696e697469616c69736564210000000060448201526064016105c1565b60075460408051600160b01b90920460ff161515825283151560208301527f2c72ac42fdd9ac54e679d91c2ec0aef5d43f3aa87031ede92d796fd5cdfb0370910160405180910390a15060078054911515600160b01b0260ff60b01b19909216919091179055565b60008281526002602052604081206115ad9083612916565b9392505050565b60009182526001602090815260408084206001600160a01b0393909316845291905290205460ff1690565b600260005414156116325760405162461bcd60e51b815260206004820152601f60248201527f5265656e7472616e637947756172643a207265656e7472616e742063616c6c0060448201526064016105c1565b6002600055600754600160b01b900460ff166116835760405162461bcd60e51b815260206004820152601060248201526f53746f726520697320636c6f7365642160801b60448201526064016105c1565b600081815260096020526040808220815160c081019092528054829082906116aa906136b0565b80601f01602080910402602001604051908101604052809291908181526020018280546116d6906136b0565b80156117235780601f106116f857610100808354040283529160200191611723565b820191906000526020600020905b81548152906001019060200180831161170657829003601f168201915b505050918352505060018201546020820152600282015460408201526003820154606082015260049091015460ff8082161515608084015261010090910416151560a09182015281015190915061178c5760405162461bcd60e51b81526004016105c190613716565b80608001516117d85760405162461bcd60e51b8152602060048201526018602482015277436861726163746572206973206e6f74206163746976652160401b60448201526064016105c1565b600754611802906001600160a01b03163360065460608501516001600160a01b0390911690612922565b6005546001600160a01b03166367d51cc4336040516001600160e01b031960e084901b1681526001600160a01b03909116600482015260248101859052604401602060405180830381600087803b15801561185c57600080fd5b505af1158015611870573d6000803e3d6000fd5b505050506040513d601f19601f8201168201806040525081019061189491906138c0565b506007546060820151604080516001600160a01b03909316835260208301919091528051339285927f2186723525ab485cb893185186d1424e5d616ce96c8c19dc6ce99e4d32b106f592918290030190a360035460408051637a5b5a1d60e01b815290516000926001600160a01b031691637a5b5a1d916004808301926020929190829003018186803b15801561192a57600080fd5b505afa15801561193e573d6000803e3d6000fd5b505050506040513d601f19601f8201168201806040525081019061196291906138c0565b61196d90600a613a07565b611978906001613a13565b90506000600360009054906101000a90046001600160a01b03166001600160a01b031663ec9e03936040518163ffffffff1660e01b815260040160206040518083038186803b1580156119ca57600080fd5b505afa1580156119de573d6000803e3d6000fd5b505050506040513d601f19601f82011682018060405250810190611a0291906138c0565b60608401516007549192506000918391606491611a299190600160a81b900460ff16613a13565b611a339190613a32565b611a3d9190613a13565b9050611a498382613a32565b9050611a8e6040518060400160405280601a81526020017f4368617261637465722070726963653a20257320535441424c45000000000000815250856060015161297c565b611ac1604051806040016040528060118152602001700c4814d510509311480f48095cc8115311607a1b8152508361297c565b60408051808201909152601081526f454c44206b69636b6261636b3a20257360801b6020820152600754611aff9190600160a81b900460ff1661297c565b611b3e6040518060400160405280601a81526020017f526573756c74206f66206b69636b6261636b3a20257320454c440000000000008152508261297c565b8015611bb8576004546001600160a01b031663a1448194335b6040516001600160e01b031960e084901b1681526001600160a01b03909116600482015260248101849052604401600060405180830381600087803b158015611b9f57600080fd5b505af1158015611bb3573d6000803e3d6000fd5b505050505b50506001600055505050565b6000611bcf816128c5565b604080518082018252601981527f7472616e7366657228616464726573732c75696e74323536290000000000000060209182015281516001600160a01b0386169181019190915280820184905281518082038301815260608201909252600091611c5e917fa9059cbb2ab09eb219583f4a59a5d0623ade346d962bcd4e46b11da047c9049b9190608001613a54565b60405160208183030381529060405290506000856001600160a01b031682604051611c899190613a85565b6000604051808303816000865af19150503d8060008114611cc6576040519150601f19603f3d011682016040523d82523d6000602084013e611ccb565b606091505b5050905080611d0b5760405162461bcd60e51b815260206004820152600c60248201526b43616c6c206661696c65642160a01b60448201526064016105c1565b846001600160a01b0316866001600160a01b03167fc00a88ee4656f9bf9caef53a29be902b0017cf1e454eaed6526c08b8c2e106cf86604051611d5091815260200190565b60405180910390a3505050505050565b60606008805480602002602001604051908101604052809291908181526020018280548015611dae57602002820191906000526020600020905b815481526020019060010190808311611d9a575b5050505050905090565b600080516020613bbe833981519152611dd0816128c5565b6003546001600160a01b0383811691161415611dfe5760405162461bcd60e51b81526004016105c19061366b565b600354604080516001600160a01b03928316815291841660208301527fe10eeb9be10e1525a4281be32ba4ca78181b1f10ad12e61e2cc6ea5eb19bbf4e910160405180910390a150600380546001600160a01b0319166001600160a01b0392909216919091179055565b600080516020613bbe833981519152611e80816128c5565b600084815260096020526040902060040154610100900460ff1615611ee75760405162461bcd60e51b815260206004820152601f60248201527f43686172616374657220697320616c7265616479206176616c6961626c65210060448201526064016105c1565b6040805160c081018252868152600854602080830191909152818301879052606082018690528415156080830152600160a0830152600087815260098252929092208151805192939192611f3e9284920190613027565b50602082015160018083019190915560408084015160028401556060840151600384015560808401516004909301805460a09095015115156101000261ff00199415159490941661ffff19909516949094179290921790925560088054928301815560009081527ff3f7a9fe364faab93b216da50a3214154f22a0a2b415b23a84c8169e8b636ee39092018690555185917f481804139f27a13d67f90159c541854c62188fd0702fe2b36c6bf68cafda0f8d91a25050505050565b6000818152600260205260408120610575906129c1565b600080516020613bbe833981519152612028816128c5565b60075460ff838116600160a81b9092041614156120575760405162461bcd60e51b81526004016105c19061366b565b60648260ff16106120aa5760405162461bcd60e51b815260206004820152601d60248201527f56616c7565206d757374206265206c6f776572207468616e203130302100000060448201526064016105c1565b6007546040805160ff600160a81b9093048316815291841660208301527f7fc47970f0efc93356352e3578a559c75e78d3a9720868e9e0d635d0fcdecd3e910160405180910390a1506007805460ff909216600160a81b0260ff60a81b19909216919091179055565b6040805160c081018252606080825260006020830181905292820183905281018290526080810182905260a081019190915260008281526009602052604090819020815160c0810190925280548290829061216d906136b0565b80601f0160208091040260200160405190810160405280929190818152602001828054612199906136b0565b80156121e65780601f106121bb576101008083540402835291602001916121e6565b820191906000526020600020905b8154815290600101906020018083116121c957829003601f168201915b505050918352505060018201546020820152600282015460408201526003820154606082015260049091015460ff8082161515608084015261010090910416151560a09091015292915050565b6000828152600160208190526040909120015461224f816128c5565b6107c583836128f4565b600260005414156122ac5760405162461bcd60e51b815260206004820152601f60248201527f5265656e7472616e637947756172643a207265656e7472616e742063616c6c0060448201526064016105c1565b6002600055600754600160b01b900460ff166122fd5760405162461bcd60e51b815260206004820152601060248201526f53746f726520697320636c6f7365642160801b60448201526064016105c1565b600081815260096020526040808220815160c08101909252805482908290612324906136b0565b80601f0160208091040260200160405190810160405280929190818152602001828054612350906136b0565b801561239d5780601f106123725761010080835404028352916020019161239d565b820191906000526020600020905b81548152906001019060200180831161238057829003601f168201915b505050918352505060018201546020820152600282015460408201526003820154606082015260049091015460ff8082161515608084015261010090910416151560a0918201528101519091506124065760405162461bcd60e51b81526004016105c190613716565b80608001516124525760405162461bcd60e51b8152602060048201526018602482015277436861726163746572206973206e6f74206163746976652160401b60448201526064016105c1565b6003546040805163ec9e039360e01b815290516000926001600160a01b03169163ec9e0393916004808301926020929190829003018186803b15801561249757600080fd5b505afa1580156124ab573d6000803e3d6000fd5b505050506040513d601f19601f820116820180604052508101906124cf91906138c0565b905060008160648460600151600760149054906101000a900460ff1660646124f79190613aa1565b60ff166125049190613a13565b61250e9190613a32565b6125189190613a13565b60045490915061253e906001600160a01b0316336006546001600160a01b031684612922565b6005546001600160a01b03166367d51cc4336040516001600160e01b031960e084901b1681526001600160a01b03909116600482015260248101879052604401602060405180830381600087803b15801561259857600080fd5b505af11580156125ac573d6000803e3d6000fd5b505050506040513d601f19601f820116820180604052508101906125d091906138c0565b50600454604080516001600160a01b039092168252602082018390528051339287927f2186723525ab485cb893185186d1424e5d616ce96c8c19dc6ce99e4d32b106f592918290030190a3600754600090606490612639908490600160a81b900460ff16613a13565b6126439190613a32565b6004549091506001600160a01b031663a144819433611b57565b600080516020613bbe833981519152612675816128c5565b6007546001600160a01b03838116911614156126a35760405162461bcd60e51b81526004016105c19061366b565b600754604080516001600160a01b03928316815291841660208301527fb5d348ed5569c478e77eeda8045a117d807ce9317698c3f01b458631b466f822910160405180910390a150600780546001600160a01b0319166001600160a01b0392909216919091179055565b600080516020613bbe833981519152612725816128c5565b60075460ff838116600160a01b9092041614156127545760405162461bcd60e51b81526004016105c19061366b565b60648260ff16106127a75760405162461bcd60e51b815260206004820152601d60248201527f56616c7565206d757374206265206c6f776572207468616e203130302100000060448201526064016105c1565b6007546040805160ff600160a01b9093048316815291841660208301527f85f39400b0549bd3e00bf53a53a2db7cc032175818775d68f9259fe7a60a9a30910160405180910390a1506007805460ff909216600160a01b0260ff60a01b19909216919091179055565b61281a82826115b4565b610a195760008281526001602081815260408084206001600160a01b0386168086529252808420805460ff19169093179092559051339285917f2f8788117e7eff1d82e926ec794901d17c78024a50270940304540a733656f0d9190a45050565b60006115ad836001600160a01b0384166129cb565b60006001600160e01b03198216637965db0b60e01b148061057557506301ffc9a760e01b6001600160e01b0319831614610575565b6128cf8133612a1a565b50565b6128dc8282612810565b60008281526002602052604090206107c5908261287b565b6128fe8282612a7e565b60008281526002602052604090206107c59082612ae5565b60006115ad8383612afa565b604080516001600160a01b0385811660248301528416604482015260648082018490528251808303909101815260849091019091526020810180516001600160e01b03166323b872dd60e01b17905261110e908590612b24565b610a198282604051602401612992929190613ac4565b60408051601f198184030181529190526020810180516001600160e01b0316632d839cb360e21b179052612bf6565b6000610575825490565b6000818152600183016020526040812054612a1257508154600181810184556000848152602080822090930184905584548482528286019093526040902091909155610575565b506000610575565b612a2482826115b4565b610a1957612a3c816001600160a01b03166014612c17565b612a47836020612c17565b604051602001612a58929190613ae6565b60408051601f198184030181529082905262461bcd60e51b82526105c191600401613b5b565b612a8882826115b4565b15610a195760008281526001602090815260408083206001600160a01b0385168085529252808320805460ff1916905551339285917ff6391f5c32d9c69d2a47ea670b442974b53935d1edc7fd64eb21e047a839171b9190a45050565b60006115ad836001600160a01b038416612db3565b6000826000018281548110612b1157612b1161369a565b9060005260206000200154905092915050565b6000612b79826040518060400160405280602081526020017f5361666545524332303a206c6f772d6c6576656c2063616c6c206661696c6564815250856001600160a01b0316612ea69092919063ffffffff16565b8051909150156107c55780806020019051810190612b9791906138d9565b6107c55760405162461bcd60e51b815260206004820152602a60248201527f5361666545524332303a204552433230206f7065726174696f6e20646964206e6044820152691bdd081cdd58d8d9595960b21b60648201526084016105c1565b80516a636f6e736f6c652e6c6f67602083016000808483855afa5050505050565b60606000612c26836002613a13565b612c31906002613b6e565b67ffffffffffffffff811115612c4957612c496133e1565b6040519080825280601f01601f191660200182016040528015612c73576020820181803683370190505b509050600360fc1b81600081518110612c8e57612c8e61369a565b60200101906001600160f81b031916908160001a905350600f60fb1b81600181518110612cbd57612cbd61369a565b60200101906001600160f81b031916908160001a9053506000612ce1846002613a13565b612cec906001613b6e565b90505b6001811115612d64576f181899199a1a9b1b9c1cb0b131b232b360811b85600f1660108110612d2057612d2061369a565b1a60f81b828281518110612d3657612d3661369a565b60200101906001600160f81b031916908160001a90535060049490941c93612d5d81613b86565b9050612cef565b5083156115ad5760405162461bcd60e51b815260206004820181905260248201527f537472696e67733a20686578206c656e67746820696e73756666696369656e7460448201526064016105c1565b60008181526001830160205260408120548015612e9c576000612dd76001836138f6565b8554909150600090612deb906001906138f6565b9050818114612e50576000866000018281548110612e0b57612e0b61369a565b9060005260206000200154905080876000018481548110612e2e57612e2e61369a565b6000918252602080832090910192909255918252600188019052604090208390555b8554869080612e6157612e6161390d565b600190038181906000526020600020016000905590558560010160008681526020019081526020016000206000905560019350505050610575565b6000915050610575565b6060612eb58484600085612ebd565b949350505050565b606082471015612f1e5760405162461bcd60e51b815260206004820152602660248201527f416464726573733a20696e73756666696369656e742062616c616e636520666f6044820152651c8818d85b1b60d21b60648201526084016105c1565b6001600160a01b0385163b612f755760405162461bcd60e51b815260206004820152601d60248201527f416464726573733a2063616c6c20746f206e6f6e2d636f6e747261637400000060448201526064016105c1565b600080866001600160a01b03168587604051612f919190613a85565b60006040518083038185875af1925050503d8060008114612fce576040519150601f19603f3d011682016040523d82523d6000602084013e612fd3565b606091505b5091509150612fe3828286612fee565b979650505050505050565b60608315612ffd5750816115ad565b82511561300d5782518084602001fd5b8160405162461bcd60e51b81526004016105c19190613b5b565b828054613033906136b0565b90600052602060002090601f016020900481019282613055576000855561309b565b82601f1061306e57805160ff191683800117855561309b565b8280016001018555821561309b579182015b8281111561309b578251825591602001919060010190613080565b506130a792915061315c565b5090565b8280546130b7906136b0565b90600052602060002090601f0160209004810192826130d9576000855561309b565b82601f106130ea578054855561309b565b8280016001018555821561309b57600052602060002091601f016020900482015b8281111561309b57825482559160010191906001019061310b565b508054613132906136b0565b6000825580601f10613142575050565b601f0160209004906000526020600020908101906128cf91905b5b808211156130a7576000815560010161315d565b60006020828403121561318357600080fd5b81356001600160e01b0319811681146115ad57600080fd5b80356001600160a01b03811681146131b257600080fd5b919050565b6000602082840312156131c957600080fd5b6115ad8261319b565b803560ff811681146131b257600080fd5b60008060008060008060008060006101208a8c03121561320257600080fd5b61320b8a61319b565b985061321960208b0161319b565b975061322760408b0161319b565b965061323560608b0161319b565b955061324360808b0161319b565b945061325160a08b0161319b565b935061325f60c08b0161319b565b925061326d60e08b016131d2565b915061327c6101008b016131d2565b90509295985092959850929598565b60006020828403121561329d57600080fd5b5035919050565b600080604083850312156132b757600080fd5b823591506132c76020840161319b565b90509250929050565b60005b838110156132eb5781810151838201526020016132d3565b8381111561110e5750506000910152565b600081518084526133148160208601602086016132d0565b601f01601f19169290920160200192915050565b6000815160c0845261333d60c08501826132fc565b905060208301516020850152604083015160408501526060830151606085015260808301511515608085015260a0830151151560a08501528091505092915050565b6000602080830181845280855180835260408601915060408160051b870101925083870160005b828110156133d457603f198886030184526133c2858351613328565b945092850192908501906001016133a6565b5092979650505050505050565b634e487b7160e01b600052604160045260246000fd5b604051601f8201601f1916810167ffffffffffffffff81118282101715613420576134206133e1565b604052919050565b600067ffffffffffffffff821115613442576134426133e1565b50601f01601f191660200190565b600061346361345e84613428565b6133f7565b905082815283838301111561347757600080fd5b828260208301376000602084830101529392505050565b6000806000606084860312156134a357600080fd5b833592506134b3602085016131d2565b9150604084013567ffffffffffffffff8111156134cf57600080fd5b8401601f810186136134e057600080fd5b6134ef86823560208401613450565b9150509250925092565b80151581146128cf57600080fd5b60006020828403121561351957600080fd5b81356115ad816134f9565b6000806040838503121561353757600080fd5b50508035926020909101359150565b60008060006060848603121561355b57600080fd5b6135648461319b565b92506135726020850161319b565b9150604084013590509250925092565b6020808252825182820181905260009190848201906040850190845b818110156135ba5783518352928401929184019160010161359e565b50909695505050505050565b600080600080608085870312156135dc57600080fd5b843567ffffffffffffffff8111156135f357600080fd5b8501601f8101871361360457600080fd5b61361387823560208401613450565b94505060208501359250604085013591506060850135613632816134f9565b939692955090935050565b60006020828403121561364f57600080fd5b6115ad826131d2565b6020815260006115ad6020830184613328565b60208082526015908201527456616c756520697320616c7265616479207365742160581b604082015260600190565b634e487b7160e01b600052603260045260246000fd5b600181811c908216806136c457607f821691505b6020821081141561099957634e487b7160e01b600052602260045260246000fd5b634e487b7160e01b600052601160045260246000fd5b600060001982141561370f5761370f6136e5565b5060010190565b60208082526019908201527f43686172616374657220646f6573206e6f742065786973742100000000000000604082015260600190565b60006020828403121561375f57600080fd5b815167ffffffffffffffff81111561377657600080fd5b8201601f8101841361378757600080fd5b805161379561345e82613428565b8181528560208385010111156137aa57600080fd5b6137bb8260208301602086016132d0565b95945050505050565b600060208083526000845481600182811c9150808316806137e657607f831692505b85831081141561380457634e487b7160e01b85526022600452602485fd5b87860183815260200181801561382157600181146138325761385d565b60ff1986168252878201965061385d565b60008b81526020902060005b868110156138575781548482015290850190890161383e565b83019750505b50949998505050505050505050565b602080825260159082015274506172616d20697320616c7265616479207365742160581b604082015260600190565b6040815260006138ae60408301856132fc565b82810360208401526137bb81856132fc565b6000602082840312156138d257600080fd5b5051919050565b6000602082840312156138eb57600080fd5b81516115ad816134f9565b600082821015613908576139086136e5565b500390565b634e487b7160e01b600052603160045260246000fd5b600181815b8085111561395e578160001904821115613944576139446136e5565b8085161561395157918102915b93841c9390800290613928565b509250929050565b60008261397557506001610575565b8161398257506000610575565b816001811461399857600281146139a2576139be565b6001915050610575565b60ff8411156139b3576139b36136e5565b50506001821b610575565b5060208310610133831016604e8410600b84101617156139e1575081810a610575565b6139eb8383613923565b80600019048211156139ff576139ff6136e5565b029392505050565b60006115ad8383613966565b6000816000190483118215151615613a2d57613a2d6136e5565b500290565b600082613a4f57634e487b7160e01b600052601260045260246000fd5b500490565b6001600160e01b0319831681528151600090613a778160048501602087016132d0565b919091016004019392505050565b60008251613a978184602087016132d0565b9190910192915050565b600060ff821660ff841680821015613abb57613abb6136e5565b90039392505050565b604081526000613ad760408301856132fc565b90508260208301529392505050565b7f416363657373436f6e74726f6c3a206163636f756e7420000000000000000000815260008351613b1e8160178501602088016132d0565b7001034b99036b4b9b9b4b733903937b6329607d1b6017918401918201528351613b4f8160288401602088016132d0565b01602801949350505050565b6020815260006115ad60208301846132fc565b60008219821115613b8157613b816136e5565b500190565b600081613b9557613b956136e5565b50600019019056fe63f3fff32f360579b3b3b2428514459baa9e796b4c021cf05f92156c3cf72c9d71f3d55856e4058ed06ee057d79ada615f65cdf5f9ee88181b914225088f834fa26469706673582212208012228d4f0caea500c693e97460d5770d7e978783a39b05470c26fcb2abc42964736f6c63430008090033",
  "devdoc": {
    "kind": "dev",
    "methods": {
      "getRoleAdmin(bytes32)": {
        "details": "Returns the admin role that controls `role`. See {grantRole} and {revokeRole}. To change a role's admin, use {_setRoleAdmin}."
      },
      "getRoleMember(bytes32,uint256)": {
        "details": "Returns one of the accounts that have `role`. `index` must be a value between 0 and {getRoleMemberCount}, non-inclusive. Role bearers are not sorted in any particular way, and their ordering may change at any point. WARNING: When using {getRoleMember} and {getRoleMemberCount}, make sure you perform all queries on the same block. See the following https://forum.openzeppelin.com/t/iterating-over-elements-on-enumerableset-in-openzeppelin-contracts/2296[forum post] for more information."
      },
      "getRoleMemberCount(bytes32)": {
        "details": "Returns the number of accounts that have `role`. Can be used together with {getRoleMember} to enumerate all bearers of a role."
      },
      "grantRole(bytes32,address)": {
        "details": "Grants `role` to `account`. If `account` had not been already granted `role`, emits a {RoleGranted} event. Requirements: - the caller must have ``role``'s admin role. May emit a {RoleGranted} event."
      },
      "hasRole(bytes32,address)": {
        "details": "Returns `true` if `account` has been granted `role`."
      },
      "renounceRole(bytes32,address)": {
        "details": "Revokes `role` from the calling account. Roles are often managed via {grantRole} and {revokeRole}: this function's purpose is to provide a mechanism for accounts to lose their privileges if they are compromised (such as when a trusted device is misplaced). If the calling account had been revoked `role`, emits a {RoleRevoked} event. Requirements: - the caller must be `account`. May emit a {RoleRevoked} event."
      },
      "revokeRole(bytes32,address)": {
        "details": "Revokes `role` from `account`. If `account` had been granted `role`, emits a {RoleRevoked} event. Requirements: - the caller must have ``role``'s admin role. May emit a {RoleRevoked} event."
      },
      "supportsInterface(bytes4)": {
        "details": "See {IERC165-supportsInterface}."
      }
    },
    "version": 1
  },
  "userdoc": {
    "kind": "user",
    "methods": {},
    "version": 1
  },
  "storageLayout": {
    "storage": [
      {
        "astId": 1228,
        "contract": "contracts/CharacterStoreContract.sol:CharacterStoreContract",
        "label": "_status",
        "offset": 0,
        "slot": "0",
        "type": "t_uint256"
      },
      {
        "astId": 699,
        "contract": "contracts/CharacterStoreContract.sol:CharacterStoreContract",
        "label": "_roles",
        "offset": 0,
        "slot": "1",
        "type": "t_mapping(t_bytes32,t_struct(RoleData)694_storage)"
      },
      {
        "astId": 1013,
        "contract": "contracts/CharacterStoreContract.sol:CharacterStoreContract",
        "label": "_roleMembers",
        "offset": 0,
        "slot": "2",
        "type": "t_mapping(t_bytes32,t_struct(AddressSet)2543_storage)"
      },
      {
        "astId": 2878,
        "contract": "contracts/CharacterStoreContract.sol:CharacterStoreContract",
        "label": "_priceResolverInstance",
        "offset": 0,
        "slot": "3",
        "type": "t_contract(IPriceResolverContract)109"
      },
      {
        "astId": 2881,
        "contract": "contracts/CharacterStoreContract.sol:CharacterStoreContract",
        "label": "_eldInstance",
        "offset": 0,
        "slot": "4",
        "type": "t_contract(IEldfallTokenContract)674"
      },
      {
        "astId": 2884,
        "contract": "contracts/CharacterStoreContract.sol:CharacterStoreContract",
        "label": "_nftInstance",
        "offset": 0,
        "slot": "5",
        "type": "t_contract(ICharacterNftContract)477"
      },
      {
        "astId": 2886,
        "contract": "contracts/CharacterStoreContract.sol:CharacterStoreContract",
        "label": "_vaultAddress",
        "offset": 0,
        "slot": "6",
        "type": "t_address"
      },
      {
        "astId": 2889,
        "contract": "contracts/CharacterStoreContract.sol:CharacterStoreContract",
        "label": "_stableInstance",
        "offset": 0,
        "slot": "7",
        "type": "t_contract(IERC20)1335"
      },
      {
        "astId": 2891,
        "contract": "contracts/CharacterStoreContract.sol:CharacterStoreContract",
        "label": "_eldDiscount",
        "offset": 20,
        "slot": "7",
        "type": "t_uint8"
      },
      {
        "astId": 2893,
        "contract": "contracts/CharacterStoreContract.sol:CharacterStoreContract",
        "label": "_eldKickback",
        "offset": 21,
        "slot": "7",
        "type": "t_uint8"
      },
      {
        "astId": 2895,
        "contract": "contracts/CharacterStoreContract.sol:CharacterStoreContract",
        "label": "_storeActive",
        "offset": 22,
        "slot": "7",
        "type": "t_bool"
      },
      {
        "astId": 2897,
        "contract": "contracts/CharacterStoreContract.sol:CharacterStoreContract",
        "label": "_initialised",
        "offset": 23,
        "slot": "7",
        "type": "t_bool"
      },
      {
        "astId": 2900,
        "contract": "contracts/CharacterStoreContract.sol:CharacterStoreContract",
        "label": "_avaliableCharacters",
        "offset": 0,
        "slot": "8",
        "type": "t_array(t_bytes32)dyn_storage"
      },
      {
        "astId": 2905,
        "contract": "contracts/CharacterStoreContract.sol:CharacterStoreContract",
        "label": "_characterDataMap",
        "offset": 0,
        "slot": "9",
        "type": "t_mapping(t_bytes32,t_struct(CharacterData)2852_storage)"
      }
    ],
    "types": {
      "t_address": {
        "encoding": "inplace",
        "label": "address",
        "numberOfBytes": "20"
      },
      "t_array(t_bytes32)dyn_storage": {
        "base": "t_bytes32",
        "encoding": "dynamic_array",
        "label": "bytes32[]",
        "numberOfBytes": "32"
      },
      "t_bool": {
        "encoding": "inplace",
        "label": "bool",
        "numberOfBytes": "1"
      },
      "t_bytes32": {
        "encoding": "inplace",
        "label": "bytes32",
        "numberOfBytes": "32"
      },
      "t_contract(ICharacterNftContract)477": {
        "encoding": "inplace",
        "label": "contract ICharacterNftContract",
        "numberOfBytes": "20"
      },
      "t_contract(IERC20)1335": {
        "encoding": "inplace",
        "label": "contract IERC20",
        "numberOfBytes": "20"
      },
      "t_contract(IEldfallTokenContract)674": {
        "encoding": "inplace",
        "label": "contract IEldfallTokenContract",
        "numberOfBytes": "20"
      },
      "t_contract(IPriceResolverContract)109": {
        "encoding": "inplace",
        "label": "contract IPriceResolverContract",
        "numberOfBytes": "20"
      },
      "t_mapping(t_address,t_bool)": {
        "encoding": "mapping",
        "key": "t_address",
        "label": "mapping(address => bool)",
        "numberOfBytes": "32",
        "value": "t_bool"
      },
      "t_mapping(t_bytes32,t_struct(AddressSet)2543_storage)": {
        "encoding": "mapping",
        "key": "t_bytes32",
        "label": "mapping(bytes32 => struct EnumerableSet.AddressSet)",
        "numberOfBytes": "32",
        "value": "t_struct(AddressSet)2543_storage"
      },
      "t_mapping(t_bytes32,t_struct(CharacterData)2852_storage)": {
        "encoding": "mapping",
        "key": "t_bytes32",
        "label": "mapping(bytes32 => struct CharacterData)",
        "numberOfBytes": "32",
        "value": "t_struct(CharacterData)2852_storage"
      },
      "t_mapping(t_bytes32,t_struct(RoleData)694_storage)": {
        "encoding": "mapping",
        "key": "t_bytes32",
        "label": "mapping(bytes32 => struct AccessControl.RoleData)",
        "numberOfBytes": "32",
        "value": "t_struct(RoleData)694_storage"
      },
      "t_mapping(t_bytes32,t_uint256)": {
        "encoding": "mapping",
        "key": "t_bytes32",
        "label": "mapping(bytes32 => uint256)",
        "numberOfBytes": "32",
        "value": "t_uint256"
      },
      "t_string_storage": {
        "encoding": "bytes",
        "label": "string",
        "numberOfBytes": "32"
      },
      "t_struct(AddressSet)2543_storage": {
        "encoding": "inplace",
        "label": "struct EnumerableSet.AddressSet",
        "members": [
          {
            "astId": 2542,
            "contract": "contracts/CharacterStoreContract.sol:CharacterStoreContract",
            "label": "_inner",
            "offset": 0,
            "slot": "0",
            "type": "t_struct(Set)2242_storage"
          }
        ],
        "numberOfBytes": "64"
      },
      "t_struct(CharacterData)2852_storage": {
        "encoding": "inplace",
        "label": "struct CharacterData",
        "members": [
          {
            "astId": 2841,
            "contract": "contracts/CharacterStoreContract.sol:CharacterStoreContract",
            "label": "name",
            "offset": 0,
            "slot": "0",
            "type": "t_string_storage"
          },
          {
            "astId": 2843,
            "contract": "contracts/CharacterStoreContract.sol:CharacterStoreContract",
            "label": "storeId",
            "offset": 0,
            "slot": "1",
            "type": "t_uint256"
          },
          {
            "astId": 2845,
            "contract": "contracts/CharacterStoreContract.sol:CharacterStoreContract",
            "label": "characterHash",
            "offset": 0,
            "slot": "2",
            "type": "t_bytes32"
          },
          {
            "astId": 2847,
            "contract": "contracts/CharacterStoreContract.sol:CharacterStoreContract",
            "label": "price",
            "offset": 0,
            "slot": "3",
            "type": "t_uint256"
          },
          {
            "astId": 2849,
            "contract": "contracts/CharacterStoreContract.sol:CharacterStoreContract",
            "label": "active",
            "offset": 0,
            "slot": "4",
            "type": "t_bool"
          },
          {
            "astId": 2851,
            "contract": "contracts/CharacterStoreContract.sol:CharacterStoreContract",
            "label": "avaliable",
            "offset": 1,
            "slot": "4",
            "type": "t_bool"
          }
        ],
        "numberOfBytes": "160"
      },
      "t_struct(RoleData)694_storage": {
        "encoding": "inplace",
        "label": "struct AccessControl.RoleData",
        "members": [
          {
            "astId": 691,
            "contract": "contracts/CharacterStoreContract.sol:CharacterStoreContract",
            "label": "members",
            "offset": 0,
            "slot": "0",
            "type": "t_mapping(t_address,t_bool)"
          },
          {
            "astId": 693,
            "contract": "contracts/CharacterStoreContract.sol:CharacterStoreContract",
            "label": "adminRole",
            "offset": 0,
            "slot": "1",
            "type": "t_bytes32"
          }
        ],
        "numberOfBytes": "64"
      },
      "t_struct(Set)2242_storage": {
        "encoding": "inplace",
        "label": "struct EnumerableSet.Set",
        "members": [
          {
            "astId": 2237,
            "contract": "contracts/CharacterStoreContract.sol:CharacterStoreContract",
            "label": "_values",
            "offset": 0,
            "slot": "0",
            "type": "t_array(t_bytes32)dyn_storage"
          },
          {
            "astId": 2241,
            "contract": "contracts/CharacterStoreContract.sol:CharacterStoreContract",
            "label": "_indexes",
            "offset": 0,
            "slot": "1",
            "type": "t_mapping(t_bytes32,t_uint256)"
          }
        ],
        "numberOfBytes": "64"
      },
      "t_uint256": {
        "encoding": "inplace",
        "label": "uint256",
        "numberOfBytes": "32"
      },
      "t_uint8": {
        "encoding": "inplace",
        "label": "uint8",
        "numberOfBytes": "1"
      }
    }
  }
}