{
  "address": "0x9fE46736679d2D9a65F0992F2272dE9f3c7fa6e0",
  "abi": [
    {
      "inputs": [],
      "stateMutability": "nonpayable",
      "type": "constructor"
    },
    {
      "anonymous": false,
      "inputs": [],
      "name": "ContractKilled",
      "type": "event"
    },
    {
      "anonymous": false,
      "inputs": [
        {
          "indexed": true,
          "internalType": "bytes32",
          "name": "role",
          "type": "bytes32"
        },
        {
          "indexed": true,
          "internalType": "bytes32",
          "name": "previousAdminRole",
          "type": "bytes32"
        },
        {
          "indexed": true,
          "internalType": "bytes32",
          "name": "newAdminRole",
          "type": "bytes32"
        }
      ],
      "name": "RoleAdminChanged",
      "type": "event"
    },
    {
      "anonymous": false,
      "inputs": [
        {
          "indexed": true,
          "internalType": "bytes32",
          "name": "role",
          "type": "bytes32"
        },
        {
          "indexed": true,
          "internalType": "address",
          "name": "account",
          "type": "address"
        },
        {
          "indexed": true,
          "internalType": "address",
          "name": "sender",
          "type": "address"
        }
      ],
      "name": "RoleGranted",
      "type": "event"
    },
    {
      "anonymous": false,
      "inputs": [
        {
          "indexed": true,
          "internalType": "bytes32",
          "name": "role",
          "type": "bytes32"
        },
        {
          "indexed": true,
          "internalType": "address",
          "name": "account",
          "type": "address"
        },
        {
          "indexed": true,
          "internalType": "address",
          "name": "sender",
          "type": "address"
        }
      ],
      "name": "RoleRevoked",
      "type": "event"
    },
    {
      "anonymous": false,
      "inputs": [
        {
          "indexed": false,
          "internalType": "uint256",
          "name": "oldValue",
          "type": "uint256"
        },
        {
          "indexed": false,
          "internalType": "uint256",
          "name": "newValue",
          "type": "uint256"
        }
      ],
      "name": "StablePriceUpdated",
      "type": "event"
    },
    {
      "anonymous": false,
      "inputs": [
        {
          "indexed": false,
          "internalType": "uint256",
          "name": "oldValue",
          "type": "uint256"
        },
        {
          "indexed": false,
          "internalType": "uint256",
          "name": "newValue",
          "type": "uint256"
        }
      ],
      "name": "TokenPriceUpdated",
      "type": "event"
    },
    {
      "anonymous": false,
      "inputs": [
        {
          "indexed": true,
          "internalType": "address",
          "name": "tokenAddress",
          "type": "address"
        },
        {
          "indexed": true,
          "internalType": "address",
          "name": "userAddress",
          "type": "address"
        },
        {
          "indexed": false,
          "internalType": "uint256",
          "name": "amount",
          "type": "uint256"
        }
      ],
      "name": "TokensSalvaged",
      "type": "event"
    },
    {
      "inputs": [],
      "name": "DEFAULT_ADMIN_ROLE",
      "outputs": [
        {
          "internalType": "bytes32",
          "name": "",
          "type": "bytes32"
        }
      ],
      "stateMutability": "view",
      "type": "function"
    },
    {
      "inputs": [],
      "name": "MODERATOR_ROLE",
      "outputs": [
        {
          "internalType": "bytes32",
          "name": "",
          "type": "bytes32"
        }
      ],
      "stateMutability": "view",
      "type": "function"
    },
    {
      "inputs": [
        {
          "internalType": "bytes32",
          "name": "role",
          "type": "bytes32"
        }
      ],
      "name": "getRoleAdmin",
      "outputs": [
        {
          "internalType": "bytes32",
          "name": "",
          "type": "bytes32"
        }
      ],
      "stateMutability": "view",
      "type": "function"
    },
    {
      "inputs": [
        {
          "internalType": "bytes32",
          "name": "role",
          "type": "bytes32"
        },
        {
          "internalType": "uint256",
          "name": "index",
          "type": "uint256"
        }
      ],
      "name": "getRoleMember",
      "outputs": [
        {
          "internalType": "address",
          "name": "",
          "type": "address"
        }
      ],
      "stateMutability": "view",
      "type": "function"
    },
    {
      "inputs": [
        {
          "internalType": "bytes32",
          "name": "role",
          "type": "bytes32"
        }
      ],
      "name": "getRoleMemberCount",
      "outputs": [
        {
          "internalType": "uint256",
          "name": "",
          "type": "uint256"
        }
      ],
      "stateMutability": "view",
      "type": "function"
    },
    {
      "inputs": [],
      "name": "getStableAddress",
      "outputs": [
        {
          "internalType": "address",
          "name": "",
          "type": "address"
        }
      ],
      "stateMutability": "view",
      "type": "function"
    },
    {
      "inputs": [],
      "name": "getStableDecimals",
      "outputs": [
        {
          "internalType": "uint8",
          "name": "",
          "type": "uint8"
        }
      ],
      "stateMutability": "view",
      "type": "function"
    },
    {
      "inputs": [],
      "name": "getStablePrice",
      "outputs": [
        {
          "internalType": "uint256",
          "name": "",
          "type": "uint256"
        }
      ],
      "stateMutability": "view",
      "type": "function"
    },
    {
      "inputs": [],
      "name": "getTokenAddress",
      "outputs": [
        {
          "internalType": "address",
          "name": "",
          "type": "address"
        }
      ],
      "stateMutability": "view",
      "type": "function"
    },
    {
      "inputs": [],
      "name": "getTokenDecimals",
      "outputs": [
        {
          "internalType": "uint8",
          "name": "",
          "type": "uint8"
        }
      ],
      "stateMutability": "view",
      "type": "function"
    },
    {
      "inputs": [],
      "name": "getTokenPrice",
      "outputs": [
        {
          "internalType": "uint256",
          "name": "",
          "type": "uint256"
        }
      ],
      "stateMutability": "view",
      "type": "function"
    },
    {
      "inputs": [
        {
          "internalType": "bytes32",
          "name": "role",
          "type": "bytes32"
        },
        {
          "internalType": "address",
          "name": "account",
          "type": "address"
        }
      ],
      "name": "grantRole",
      "outputs": [],
      "stateMutability": "nonpayable",
      "type": "function"
    },
    {
      "inputs": [
        {
          "internalType": "bytes32",
          "name": "role",
          "type": "bytes32"
        },
        {
          "internalType": "address",
          "name": "account",
          "type": "address"
        }
      ],
      "name": "hasRole",
      "outputs": [
        {
          "internalType": "bool",
          "name": "",
          "type": "bool"
        }
      ],
      "stateMutability": "view",
      "type": "function"
    },
    {
      "inputs": [
        {
          "internalType": "address",
          "name": "defaultAdminAddress_",
          "type": "address"
        },
        {
          "internalType": "address",
          "name": "moderatorAddress_",
          "type": "address"
        },
        {
          "internalType": "address",
          "name": "tokenAddress_",
          "type": "address"
        },
        {
          "internalType": "address",
          "name": "stableAddress_",
          "type": "address"
        }
      ],
      "name": "init",
      "outputs": [],
      "stateMutability": "nonpayable",
      "type": "function"
    },
    {
      "inputs": [],
      "name": "isInitialised",
      "outputs": [
        {
          "internalType": "bool",
          "name": "",
          "type": "bool"
        }
      ],
      "stateMutability": "view",
      "type": "function"
    },
    {
      "inputs": [],
      "name": "killContract",
      "outputs": [],
      "stateMutability": "nonpayable",
      "type": "function"
    },
    {
      "inputs": [
        {
          "internalType": "bytes32",
          "name": "role",
          "type": "bytes32"
        },
        {
          "internalType": "address",
          "name": "account",
          "type": "address"
        }
      ],
      "name": "renounceRole",
      "outputs": [],
      "stateMutability": "nonpayable",
      "type": "function"
    },
    {
      "inputs": [
        {
          "internalType": "bytes32",
          "name": "role",
          "type": "bytes32"
        },
        {
          "internalType": "address",
          "name": "account",
          "type": "address"
        }
      ],
      "name": "revokeRole",
      "outputs": [],
      "stateMutability": "nonpayable",
      "type": "function"
    },
    {
      "inputs": [
        {
          "internalType": "address",
          "name": "tokenAddress_",
          "type": "address"
        },
        {
          "internalType": "address",
          "name": "to_",
          "type": "address"
        },
        {
          "internalType": "uint256",
          "name": "amount_",
          "type": "uint256"
        }
      ],
      "name": "salvageTokensFromContract",
      "outputs": [],
      "stateMutability": "nonpayable",
      "type": "function"
    },
    {
      "inputs": [
        {
          "internalType": "uint256",
          "name": "tokenPrice_",
          "type": "uint256"
        },
        {
          "internalType": "uint256",
          "name": "stablePrice_",
          "type": "uint256"
        }
      ],
      "name": "setPrice",
      "outputs": [],
      "stateMutability": "nonpayable",
      "type": "function"
    },
    {
      "inputs": [
        {
          "internalType": "uint256",
          "name": "stablePrice_",
          "type": "uint256"
        }
      ],
      "name": "setStablePrice",
      "outputs": [],
      "stateMutability": "nonpayable",
      "type": "function"
    },
    {
      "inputs": [
        {
          "internalType": "uint256",
          "name": "tokenPrice_",
          "type": "uint256"
        }
      ],
      "name": "setTokenPrice",
      "outputs": [],
      "stateMutability": "nonpayable",
      "type": "function"
    },
    {
      "inputs": [
        {
          "internalType": "bytes4",
          "name": "interfaceId",
          "type": "bytes4"
        }
      ],
      "name": "supportsInterface",
      "outputs": [
        {
          "internalType": "bool",
          "name": "",
          "type": "bool"
        }
      ],
      "stateMutability": "view",
      "type": "function"
    }
  ],
  "transactionHash": "0x023774f80e5f66574052474bd7a3e1df1d241fdba7c04dfeeada80f6c0b8383a",
  "args": [],
  "numDeployments": 1,
  "bytecode": "0x60806040523480156200001157600080fd5b506200001f60003362000025565b6200017b565b6200003c82826200006860201b6200078b1760201c565b6000828152600160209081526040909120620000639183906200080f62000109821b17901c565b505050565b6000828152602081815260408083206001600160a01b038516845290915290205460ff1662000105576000828152602081815260408083206001600160a01b03851684529091529020805460ff19166001179055620000c43390565b6001600160a01b0316816001600160a01b0316837f2f8788117e7eff1d82e926ec794901d17c78024a50270940304540a733656f0d60405160405180910390a45b5050565b600062000120836001600160a01b03841662000129565b90505b92915050565b6000818152600183016020526040812054620001725750815460018181018455600084815260208082209093018490558454848252828601909352604090209190915562000123565b50600062000123565b6110a7806200018b6000396000f3fe608060405234801561001057600080fd5b506004361061014d5760003560e01c80637a5b5a1d116100c3578063a217fddf1161007c578063a217fddf146102bc578063ca15c873146102c4578063d547741f146102d7578063ec9e0393146102ea578063f5815144146102f2578063f7d975771461030357600080fd5b80637a5b5a1d1461025d5780639010d07c1461026557806391d14854146102785780639ed3c90c1461028b578063a0929cda14610296578063a20f0454146102a957600080fd5b806324f65ee71161011557806324f65ee7146101ed5780632f2ff15d1461020757806336568abe1461021a5780634b94f50e1461022d5780636a61e5fc14610235578063797669c91461024857600080fd5b806301ffc9a71461015257806306552ff31461017a57806310fe9ae81461018f5780631c02708d146101b4578063248a9ca3146101bc575b600080fd5b610165610160366004610d3a565b610316565b60405190151581526020015b60405180910390f35b61018d610188366004610d80565b610341565b005b6002546001600160a01b03165b6040516001600160a01b039091168152602001610171565b61018d61041c565b6101df6101ca366004610dd4565b60009081526020819052604090206001015490565b604051908152602001610171565b6101f5610453565b60405160ff9091168152602001610171565b61018d610215366004610ded565b6104d5565b61018d610228366004610ded565b6104ff565b6004546101df565b61018d610243366004610dd4565b61057d565b6101df60008051602061105283398151915281565b6101f561059e565b61019c610273366004610e19565b6105e3565b610165610286366004610ded565b610602565b60065460ff16610165565b61018d6102a4366004610e3b565b61062b565b61018d6102b7366004610dd4565b61070c565b6101df600081565b6101df6102d2366004610dd4565b61072d565b61018d6102e5366004610ded565b610744565b6005546101df565b6003546001600160a01b031661019c565b61018d610311366004610e19565b610769565b60006001600160e01b03198216635a05180f60e01b148061033b575061033b82610824565b92915050565b600061034c81610859565b60065460ff16156103a45760405162461bcd60e51b815260206004820181905260248201527f436f6e747261637420697320616c726561647920696e697469616c697365642160448201526064015b60405180910390fd5b6103af600086610866565b6103c760008051602061105283398151915285610866565b600280546001600160a01b038086166001600160a01b03199283161790925560038054928516929091169190911790556006805460ff1916600117905561041560006104103390565b610888565b5050505050565b600061042781610859565b6040517f57ba5b229dec138f5bae2e9a20b8035310ff14ea10b05bdbfa410625f867c79190600090a133ff5b6002546040805163313ce56760e01b815290516000926001600160a01b03169163313ce567916004808301926020929190829003018186803b15801561049857600080fd5b505afa1580156104ac573d6000803e3d6000fd5b505050506040513d601f19601f820116820180604052508101906104d09190610e77565b905090565b6000828152602081905260409020600101546104f081610859565b6104fa8383610866565b505050565b6001600160a01b038116331461056f5760405162461bcd60e51b815260206004820152602f60248201527f416363657373436f6e74726f6c3a2063616e206f6e6c792072656e6f756e636560448201526e103937b632b9903337b91039b2b63360891b606482015260840161039b565b6105798282610888565b5050565b60008051602061105283398151915261059581610859565b610579826108aa565b6003546040805163313ce56760e01b815290516000926001600160a01b03169163313ce567916004808301926020929190829003018186803b15801561049857600080fd5b60008281526001602052604081206105fb90836108eb565b9392505050565b6000918252602082815260408084206001600160a01b0393909316845291905290205460ff1690565b600061063681610859565b60405163a9059cbb60e01b81526001600160a01b0384811660048301526024820184905285169063a9059cbb90604401602060405180830381600087803b15801561068057600080fd5b505af1158015610694573d6000803e3d6000fd5b505050506040513d601f19601f820116820180604052508101906106b89190610e9a565b50826001600160a01b0316846001600160a01b03167fc00a88ee4656f9bf9caef53a29be902b0017cf1e454eaed6526c08b8c2e106cf846040516106fe91815260200190565b60405180910390a350505050565b60008051602061105283398151915261072481610859565b610579826108f7565b600081815260016020526040812061033b90610938565b60008281526020819052604090206001015461075f81610859565b6104fa8383610888565b60008051602061105283398151915261078181610859565b6104fa8383610942565b6107958282610602565b610579576000828152602081815260408083206001600160a01b03851684529091529020805460ff191660011790556107cb3390565b6001600160a01b0316816001600160a01b0316837f2f8788117e7eff1d82e926ec794901d17c78024a50270940304540a733656f0d60405160405180910390a45050565b60006105fb836001600160a01b038416610954565b60006001600160e01b03198216637965db0b60e01b148061033b57506301ffc9a760e01b6001600160e01b031983161461033b565b61086381336109a3565b50565b610870828261078b565b60008281526001602052604090206104fa908261080f565b6108928282610a07565b60008281526001602052604090206104fa9082610a6c565b60045460408051918252602082018390527fd9cc159fa79112d02593601db522a6696e6c5c82d9e9ca9332f89ec824935bb0910160405180910390a1600455565b60006105fb8383610a81565b60055460408051918252602082018390527f323f0a64b92919b55b39f85fc474842c2acd125ffbb758d1050135c254d0eb12910160405180910390a1600555565b600061033b825490565b61094b826108aa565b610579816108f7565b600081815260018301602052604081205461099b5750815460018181018455600084815260208082209093018490558454848252828601909352604090209190915561033b565b50600061033b565b6109ad8282610602565b610579576109c5816001600160a01b03166014610aab565b6109d0836020610aab565b6040516020016109e1929190610eec565b60408051601f198184030181529082905262461bcd60e51b825261039b91600401610f61565b610a118282610602565b15610579576000828152602081815260408083206001600160a01b0385168085529252808320805460ff1916905551339285917ff6391f5c32d9c69d2a47ea670b442974b53935d1edc7fd64eb21e047a839171b9190a45050565b60006105fb836001600160a01b038416610c47565b6000826000018281548110610a9857610a98610f94565b9060005260206000200154905092915050565b60606000610aba836002610fc0565b610ac5906002610fdf565b67ffffffffffffffff811115610add57610add610ff7565b6040519080825280601f01601f191660200182016040528015610b07576020820181803683370190505b509050600360fc1b81600081518110610b2257610b22610f94565b60200101906001600160f81b031916908160001a905350600f60fb1b81600181518110610b5157610b51610f94565b60200101906001600160f81b031916908160001a9053506000610b75846002610fc0565b610b80906001610fdf565b90505b6001811115610bf8576f181899199a1a9b1b9c1cb0b131b232b360811b85600f1660108110610bb457610bb4610f94565b1a60f81b828281518110610bca57610bca610f94565b60200101906001600160f81b031916908160001a90535060049490941c93610bf18161100d565b9050610b83565b5083156105fb5760405162461bcd60e51b815260206004820181905260248201527f537472696e67733a20686578206c656e67746820696e73756666696369656e74604482015260640161039b565b60008181526001830160205260408120548015610d30576000610c6b600183611024565b8554909150600090610c7f90600190611024565b9050818114610ce4576000866000018281548110610c9f57610c9f610f94565b9060005260206000200154905080876000018481548110610cc257610cc2610f94565b6000918252602080832090910192909255918252600188019052604090208390555b8554869080610cf557610cf561103b565b60019003818190600052602060002001600090559055856001016000868152602001908152602001600020600090556001935050505061033b565b600091505061033b565b600060208284031215610d4c57600080fd5b81356001600160e01b0319811681146105fb57600080fd5b80356001600160a01b0381168114610d7b57600080fd5b919050565b60008060008060808587031215610d9657600080fd5b610d9f85610d64565b9350610dad60208601610d64565b9250610dbb60408601610d64565b9150610dc960608601610d64565b905092959194509250565b600060208284031215610de657600080fd5b5035919050565b60008060408385031215610e0057600080fd5b82359150610e1060208401610d64565b90509250929050565b60008060408385031215610e2c57600080fd5b50508035926020909101359150565b600080600060608486031215610e5057600080fd5b610e5984610d64565b9250610e6760208501610d64565b9150604084013590509250925092565b600060208284031215610e8957600080fd5b815160ff811681146105fb57600080fd5b600060208284031215610eac57600080fd5b815180151581146105fb57600080fd5b60005b83811015610ed7578181015183820152602001610ebf565b83811115610ee6576000848401525b50505050565b7f416363657373436f6e74726f6c3a206163636f756e7420000000000000000000815260008351610f24816017850160208801610ebc565b7001034b99036b4b9b9b4b733903937b6329607d1b6017918401918201528351610f55816028840160208801610ebc565b01602801949350505050565b6020815260008251806020840152610f80816040850160208701610ebc565b601f01601f19169190910160400192915050565b634e487b7160e01b600052603260045260246000fd5b634e487b7160e01b600052601160045260246000fd5b6000816000190483118215151615610fda57610fda610faa565b500290565b60008219821115610ff257610ff2610faa565b500190565b634e487b7160e01b600052604160045260246000fd5b60008161101c5761101c610faa565b506000190190565b60008282101561103657611036610faa565b500390565b634e487b7160e01b600052603160045260246000fdfe71f3d55856e4058ed06ee057d79ada615f65cdf5f9ee88181b914225088f834fa264697066735822122023be476c5bb79a879896b52cf7af8e4a30812a63270dfec5da0efd31cf3899d964736f6c63430008090033"
}